:020000040800F2
:10000000D0310120650200084510000847100008A3
:10001000491000084B1000084D10000800000000B7
:10002000000000000000000000000000AD0100081A
:100030004F1000080000000001020008D134000841
:100040007F0200087F0200087F0200087F0200088C
:100050007F0200087F0200087F0200087F0200087C
:100060007F0200087F0200087F0200087F0200086C
:100070007F0200087F0200087F0200087F0200085C
:100080007F0200087F0200087F02000800000000D5
:100090000000000000000000000000007F020008D7
:1000A0007F0200087F0200087F0200087F0200082C
:1000B0007F0200087F0200087F0200087F0200081C
:1000C0007F0200087F0200087F0200087F0200080C
:1000D0007F0200087F0200087F0200080000000085
:1000E0007F0200087F0200087F0200080000000075
:1000F0000000000000000000000000007F02000877
:10010000000000007F0200087F0200087F02000854
:1001100000000000000000000000000000000000DF
:100120007F0200087F0200087F0200087F020008AB
:100130007F02000800000000000000000000000036
:100140000000000000000000000000007F02000826
:100150007F0200087F0200087F0200087F0200087B
:100160007F0200087F02000800000000000000007D
:10017000000000000000000000000000000000007F
:10018000000000007F0200080000000000000000E6
:100190007F0200087F020008DFF80CD003F01AFA93
:1001A00000480047D30E0008D03101202A4B1968BF
:1001B0000868B0E8F04F80F30988BFF36F8F4FF005
:1001C000000080F3118870470000000006480068B6
:1001D000006880F3088862B661B6BFF34F8FBFF343
:1001E0006F8F00DF00BF00BF08ED00E0DFF80C00FC
:1001F000016841F470010160704700BF88ED00E0C4
:10020000EFF30980BFF36F8F134B1A681EF0100FC6
:1002100008BF20ED108A20E9F04F106008B44FF0BD
:10022000500080F31188BFF34F8FBFF36F8F01F041
:10023000CDFF4FF0000080F3118808BC19680868F2
:10024000B0E8F04F1EF0100F08BFB0EC108A80F33A
:100250000988BFF36F8F704730000020EFF30580EF
:10026000704700000648804706480047FEE7FEE763
:10027000FEE7FEE7FEE7FEE7FEE7FEE7FEE7FEE756
:1002800055100008990100082849084328490860CA
:10029000704730B50F23C27801780125FAB1244A9E
:1002A000126801F1E02102F4E062C2F5E062C2F3FB
:1002B0000722C2F10404D3404278A24084781C4053
:1002C0001443220181F80024007800F01F018D40C2
:1002D0004009800000F1E020C0F8005130BD01F07D
:1002E0001F0085404809800000F1E020C0F88051DF
:1002F00030BD104A114001430D48001F0160704796
:100300000B4A121D0029116801D0014300E081430E
:10031000116070474FF0E0210428086903D020F0F5
:1003200004000861704740F00400FAE70000FA0595
:100330000CED00E080FFFF1FF648016841F001016D
:100340000160F44A0021083211600268F24B1A4041
:100350000260031DF14A1A60EE4BF14A84331A60C1
:10036000EE4A103A1B1D1A60026822F480220260D5
:10037000E8480C300160181D01607047E549002213
:10038000891C0A7008707047024600205109012933
:100390000CD002290CD0DF497431096802F01F0229
:1003A000012393400B4200D001207047D949F4E764
:1003B000D8497031F1E718B500204FF4A0440090FF
:1003C0003120FFF7E1FF0099491C0091A14201D0C3
:1003D0000028F5D03120FFF7D7FF002800D00120FA
:1003E00018BDCC4A116821F0F80141EAC000106044
:1003F0007047CC4908607047C649002270310A70C6
:100400000A70012802D0042801D105200870704725
:10041000C5490860704741EA82115A0810B5C34BBC
:10042000029C03EB02421143014341EA0460B949D3
:10043000091D086010BDBB4908667047800140EA8D
:100440000170B4491043843108607047B54988662B
:100450007047800140EA0160AE4940EA027088318D
:1004600008607047AF4908677047AE49C864704775
:10047000A84B08331A68084322F0EC621043186056
:100480007047A44B08331A68084322F0784210439F
:10049000186070479F4A0832116821F00301014338
:1004A000116070479B480830006800F00C007047EE
:1004B000984A0832116821F0F00101431160704739
:1004C000944A0832116821F4E051014311607047E9
:1004D000904A0832116821F4604141EAC00010607E
:1004E000704770B58B4B08331968914C11F00C01B3
:1004F00004D06610042903D0082903D004601BE04F
:10050000066019E0834A121D1168C1F38055116815
:1005100001F03F0115B1B6FBF1F101E0B4FBF1F1DF
:1005200014681268C4F388146143C2F30142521C78
:100530005200B1FBF2F1016019680F2202EA1111B9
:100540007C4A545C0168E14041601C68072505EA6B
:100550009424145D21FA04F484601B6805EA533383
:10056000D25CD140C16070BDC0F30121032908D124
:10057000684B08331968704A21F4F81102400A43A5
:100580001A60644970310A68C0F30B0002430A60C4
:1005900070476549443908607047634940390860CD
:1005A00070476049C1F85C0170475A4A8C32116843
:1005B00021F44011014311607047564A8C32116892
:1005C00021F44001014311607047524A8C32116896
:1005D000401E21F01F010143116070474D4A8C32CB
:1005E00011686FF0FF0321F4F85103EB002008437A
:1005F00010607047474A8C32116821F44031014342
:10060000116070474D49C1F8E0017047414A3032EE
:100610000029116801D0014300E081431160704757
:100620003C4A34320029116801D0014300E0814383
:1006300011607047374A40320029116801D00143E8
:1006400000E0814311607047324A4432002911684A
:1006500001D0014300E08143116070472D4A103200
:100660000029116801D0014300E081431160704707
:10067000284A14320029116801D0014300E0814367
:1006800011607047234A20320029116801D00143CC
:1006900000E08143116070471E4A2432002911682E
:1006A00001D0014300E0814311607047194A503284
:1006B0000029116801D0014300E0814311607047B7
:1006C000144A54320029116801D0014300E08143EB
:1006D000116070470F4A60320029116801D0014350
:1006E00000E08143116070470A4A643200291168B2
:1006F00001D0014300E0814311607047054970312A
:100700000128086803D020F008000860704740F016
:100710000800FAE700380240FFFFF6EA1030002434
:100720000030002000004742800E47420000FFFFDB
:100730000024F40000000020FFFCFF0F00104742DF
:100740000E4A0029117801D0014300E08143117065
:1007500070470A486730016841F080710160704756
:100760000146064A0020521E12680A4200D00120AB
:1007700070470249491C0870704700000D3802405C
:10078000774910B5884206D101210846FFF766FF78
:10079000002101205BE07349884206D1012102203B
:1007A000FFF75CFF0021022051E06F49884206D12B
:1007B00001210420FFF752FF0021042047E06B498C
:1007C000884206D101210820FFF748FF00210820B8
:1007D0003DE06749884206D101211020FFF73EFF26
:1007E0000021102033E06349884206D101212020F6
:1007F000FFF734FF0021202029E05F49884206D11D
:1008000001214020FFF72AFF002140201FE05B4923
:10081000884206D101218020FFF720FF002180209F
:1008200015E05749884202D1012184150AE0554953
:10083000884202D10121441504E0534988420AD17B
:10084000012104152046FFF709FF00212046BDE8DD
:100850001040FFF703BF10BDF0B5002201274FF095
:10086000030C0B6807FA02F52B40AB422CD106684B
:1008700053000CFA03F4A64306600E79D0F800E0AA
:100880009E4046EA0E0606600E79012E01D0022E29
:1008900012D18668A64386604E79D0F808E09E4063
:1008A00046EA0E0686604668AE43466045688E7925
:1008B0009640B6B235434560C568A543C560CC795E
:1008C0009C40C3681C43C460521C102AC9D3F0BDAD
:1008D0004FF6FF7101600021017141718171C17199
:1008E000704708B541F480320092C261C16100993D
:1008F000C161C169C069009008BD0246002012694B
:100900000A4200D001207047006980B27047024659
:10091000002052690A4200D001207047406980B22D
:10092000704701837047418370470AB10183704764
:10093000418370474161704742694A404261704754
:100940004B07DB0E9A40C90810B500EB8100016A25
:100950000F249C40A1430162016A1143016210BD52
:10096000000002400004024000080240000C024067
:10097000001002400014024000180240001C024017
:10098000002002400024024000280240CD4910B55A
:10099000884206D101211020FFF77EFE00211020A1
:1009A00020E0C949884202D101214C0429E0C7490D
:1009B000884202D101218C0423E0C549884202D13A
:1009C0000121CC041DE0C349884202D101210C055C
:1009D00017E0C149884209D101212020FFF75CFEC0
:1009E00000212020BDE81040FFF756BEBB498842D9
:1009F00002D101218C0704E0B94988420AD10121C2
:100A000044052046FFF73EFE2046BDE81040002189
:100A1000FFF738BE10BD7FB50446008A0D46C98871
:100A200020F4405001432182A08941F20C618843A7
:100A3000A9882A8911436A8902431143A181A08AA6
:100A400020F44071A8890843A0826846FFF749FD59
:100A50009C48844202D0A048844201D1039800E01F
:100A60000298A189090400EBC00101EB001029687C
:100A700001D5490000E08900B0FBF1F06422B0FB31
:100A8000F2F109010B096FF018056B4300EB8300CD
:100A9000A3891D044FF0320306D503EBC000B0FB61
:100AA000F2F000F0070005E003EB0010B0FBF2F0FD
:100AB00000F00F00084320817FBD4FF41651016004
:100AC00000218180C18001810C2242818181704797
:100AD00010B5028A4C8822F470630A8822438C88FD
:100AE000C9880C4322431A43028210BD00210180B1
:100AF00041808180C18070470029818902D041F402
:100B0000005101E021F4005181817047028B02F411
:100B10007F420283028B0A43028370470029818946
:100B200002D041F4004101E0C1F30E018181704720
:100B30000029818A02D041F4006101E021F40061C2
:100B400081827047C1F30801818070478088C0F3BB
:100B500008007047028A22F00F020282028A0A43CA
:100B6000028270470029818902D041F0020101E030
:100B700021F0020181817047828922F40062828122
:100B800082890A4382817047028A22F0200202820F
:100B9000028A0A43028270470029018A02D041F486
:100BA000804101E021F4804101827047818941F058
:100BB0000101818170470029818A02D041F008013A
:100BC00001E021F0080181827047028BD2B20283DA
:100BD000028B42EA0121018370470029818A02D0F9
:100BE00041F0200101E021F02001818270470029BD
:100BF000818A02D041F0100101E021F010018182D0
:100C00007047828A22F004028282828A0A438282A8
:100C100070470029818A02D041F0020101E021F0F1
:100C2000020181827047002A828A01D00A4300E0D3
:100C30008A438282704710B5C1F3421301F01F044A
:100C40000121A140012B07D0022B07D01430002A2C
:100C5000026805D00A4304E00C30F8E71030F6E7EC
:100C60008A43026010BD0246002012880A4200D06A
:100C700001207047C9430180704770B501F01F051E
:100C800001260024C1F3421306FA05F2012B0FD00E
:100C9000022B0FD0838A4FEA11210088134206FAF3
:100CA00001F600EA060001D000B10124204670BD23
:100CB0008389F0E7038AEEE70A0A01219140C943DC
:100CC000018070470010014000440040004800408F
:100CD000004C0040005000400014014000780040EB
:100CE000007C00401FB50024B74D661E4FF47A7794
:100CF0004FF4FA78002332461946A86800F08BFCBE
:100D00002246B2A1684602F077FC002332466946CB
:100D1000286800F079FB012804D1641CA4B2BC420D
:100D200000D3002400231A461946A86800F06CFB83
:100D3000404601F099F9DDE71FB50024A24D661E7B
:100D40004FF47A774FF49678002332461946A86814
:100D500000F061FC2246A1A1684602F04DFC002390
:100D600032466946286800F04FFB012804D1641C14
:100D7000A4B2BC4200D3002400231A461946A86836
:100D800000F042FB404601F06FF9DDE770B5974C8B
:100D9000054680212046FFF766FF0028F9D0294646
:100DA0002046BDE87040FFF7CDBE10B5044602E016
:100DB000641CFFF7EBFF20780028F9D110BD1FB5A8
:100DC000814C4FF0FF3500232A461946606800F039
:100DD00022FC00232A466946206800F01CFC0128FA
:100DE000F1D16846FFF7E1FFEDE7774C4FF4FA7574
:100DF000284601F039F900231A461946606800F0C8
:100E000003FBF5E77A4C4FF4FA7520212046FFF7F3
:100E100093FD284601F028F9F7E7F0B5012187B0E6
:100E20000846FFF7F3FB01214804FFF703FC01200C
:100E30008DF8040000248DF8064020206C4F0090AF
:100E40008DF8074003258DF8055069463846FFF7B1
:100E500003FD02268DF804608DF806400420009002
:100E60008DF807408DF8055069463846FFF7F4FCC9
:100E70008DF804608DF80640082000908DF807403A
:100E80008DF8055069463846FFF7E6FC0722022137
:100E90003846FFF755FD072203213846FFF750FD7E
:100EA0004FF4165002900C20ADF80C40ADF8120033
:100EB000ADF80E40ADF81440ADF810404B4C02A90F
:100EC0002046FFF7A8FD01212046FFF715FE07B0D9
:100ED000F0BD1FB5FFF7A1FF03220021012000F0A4
:100EE000F8F9394C00231A461946606000F08CFA74
:100EF00003220021012000F0ECF900231A461946D4
:100F0000A06000F081FA00221021082000F0E1F931
:100F1000206000283ED04FF44070FFF7B5F9002460
:100F20000094019402942346802232A1AFF22B1048
:100F3000039400F041FE0023009401940294802267
:100F400030A1AFF25910039400F036FE0023009454
:100F50000194029480222FA1AFF29D10039400F01F
:100F60002BFE002300940194029480222DA1AFF265
:100F70003720039400F020FE002300940194029493
:100F800080222CA1AFF2A320039400F015FE01F003
:100F900053FA002004B010BD704770477047704787
:100FA00070B504464FF0FF36074D08E00023324687
:100FB0002146286800F028FA012800D1641C207816
:100FC0000028F3D170BD0000100000204A65737442
:100FD000656D20323A2025640A0D00004A6573745D
:100FE000656D20313A2025640A0D00000044004060
:100FF000000002404C656420426C696E6B205461B5
:10100000736B0000437A7974656C6E696B20546170
:10101000736B000053656E64205553415254205445
:1010200061736B0050697361727A31205461736B24
:101030000000000050697361727A32205461736B52
:10104000000000007047FEE7FEE7FEE7FEE770479E
:1010500070470000534810B5016841F47001016009
:101060005148016841F0010101604F4A00210832F6
:10107000116002684D4B1A400260031D4C4A1A6011
:10108000026822F48022026047480C30016000F0C0
:1010900039F844494FF000608039086010BD70B5E0
:1010A000414E002208363068424B434910F00C0094
:1010B00003D0042803D0082803D00B6018E03F4871
:1010C00015E03948001D0468C4F38055046804F035
:1010D0003F042DB9B3FBF4F20368C3F388135A43FA
:1010E0000068C0F30140401C4000B2FBF0F0086013
:1010F0003068314AC0F30310121D105C0A68C24008
:101100000A6070BD0CB50022274900920192086860
:1011100040F4803008604FF4A043086800F40030C9
:1011200001900098401C0090019810B900989842D6
:10113000F3D10868800332D5012001901A4840306D
:10114000026842F0805202601D48026842F4404248
:101150000260154808300268026002680260026896
:1011600042F480520260031F164A1A600A6842F075
:1011700080720A600A689201FCD5134A40F202713B
:101180001160016821F003010160016841F0020172
:1011900001600168C1F381010229FAD10CBD0192FD
:1011A0000CBD000088ED00E000380240FFFFF6FEB5
:1011B000103000240024F4001C00002000127A00EB
:1011C0000070004010644108003C024000F108013A
:1011D0004FF0FF32C0E90112C160016100210160DE
:1011E000704700210161704742684A6093688B60D4
:1011F00093685960916008610168491C01607047FB
:1012000030B50C68621C02D000F1080202E00269ED
:1012100004E01A4653681D68A542FAD953684B602A
:1012200099608A60516008610168491C016030BDA5
:10123000D0E9013201699A60D0E901235A604A6815
:10124000824201D182684A60002202610868401E21
:101250000860704770B50D46040023D002F00BF90A
:10126000D4E90F20216802FB001161600021A16315
:101270002168A1600A46D4E90F01401E00FB01214C
:101280004FF0FF30E1606064A06404F110008DB1A4
:10129000FFF79CFF04F12400FFF798FF02F007F925
:1012A000012070BD502080F31188BFF34F8FBFF332
:1012B0006F8FFEE721690029F0D001F030FA012894
:1012C000ECD1FD4900070860BFF34F8FBFF36F8F6C
:1012D000E4E72DE9F04117460D46060017D0F5B1B9
:1012E00006FB05F0401C543001F0A0FF04001AD0AA
:1012F000BDB104F154002060C4E90F65012120460E
:10130000FFF7A8FF84F850702046BDE8F081502018
:1013100080F31188BFF34F8FBFF36F8FFEE700207C
:10132000E1E72460E8E7502080F31188BFF34F8F96
:10133000BFF36F8FFEE770B5044602F09CF804F12E
:1013400024050AE0606A58B1284601F0E8F908B1BE
:1013500001F093FAA06C401EA064A06C0028F1DCA0
:101360004FF0FF35A56402F0A2F802F084F804F112
:1013700010060AE0206958B1304601F0D0F908B1F2
:1013800001F07BFA606C401E6064606C0028F1DC48
:101390006564BDE8704002F08AB870B51646026C0C
:1013A0000446002582B1C6B1E06802F0D9F8E168D0
:1013B000206C091AE1602268914202D26168081A21
:1013C000E060022E16D01AE02068C0B9606801F013
:1013D000B1FA05460020606011E0A06802F0C0F894
:1013E000216CA0680844A0606168884207D3206827
:1013F000A06004E0A06B10B1A06B401EA063A06BC6
:10140000401CA063284670BD2DE9FF4F83B01F46E6
:101410008B4604004FF0000603D0BBF1000F08D04C
:1014200011E0502080F31188BFF34F8FBFF36F8F0F
:10143000FEE7206C38B1502080F31188BFF34F8F46
:10144000BFF36F8FFEE7022F0AD1E06B012807D0B0
:10145000502080F31188BFF34F8FBFF36F8FFEE7EB
:1014600001F01AFADFF850924FF0000A4FF080585E
:1014700048B9059838B1502080F31188BFF34F8FD9
:10148000BFF36F8FFEE701F0F6FFA06BE16B8842C0
:1014900005D3022F03D00598E0B1F6B121E03A461A
:1014A00059462046FFF779FF616A31B104F1240003
:1014B00001F035F9012801D006E028B1C9F8008013
:1014C000BFF34F8FBFF36F8F01F0F1FF012007B023
:1014D000BDE8F08F01F0EBFF1FE0684601F08BF9EB
:1014E000012601F0E4FF00F06AFD01F0C4FF606C2A
:1014F000401C01D1C4F844A0A06C401C01D1C4F828
:1015000048A001F0D4FF05A9684601F083F930B185
:101510002046FFF710FF00F0DEFC0020D7E701F0C7
:10152000AAFFA06BE16B884201D1012500E00025F4
:1015300001F0BDFF95B104F11000059901F059F8D3
:101540002046FFF7F8FE00F0C6FC00289BD1C9F842
:101550000080BFF34F8FBFF36F8F94E72046FFF7F4
:10156000EAFE00F0B8FC8EE770B50546542001F0A5
:101570005DFE04001BD0002161602160A160E1607C
:10158000A1630120C4E90F01801E6064A06484F897
:10159000505004F11000FFF719FE04F12400FFF78A
:1015A00015FE00231A4619462046FFF72DFF204658
:1015B00070BD10B5040009D001F06BF96168884274
:1015C00014D1E068401EE06008D00DE0502080F3A8
:1015D0001188BFF34F8FBFF36F8FFEE700231A46CA
:1015E00019462046FFF710FF012010BD002010BD56
:1015F00030B4026C0B46002A0BD0C1681144C160A4
:101600004468A14201D30168C16030BC184601F0B2
:10161000A7BF30BC70472DE9FF4F83B09B468A4679
:1016200004004FF0000603D0BAF1000F08D011E01B
:10163000502080F31188BFF34F8FBFF36F8FFEE709
:10164000206C38B1502080F31188BFF34F8FBFF367
:101650006F8FFEE701F020F9DFF85C804FF00009A2
:101660004FF0805748B9059838B1502080F3118861
:10167000BFF34F8FBFF36F8FFEE701F0FCFEA06B4F
:1016800070B351462046E568FFF7B2FFBBF1000F8B
:1016900014D0E560606A50B104F1240001F03FF815
:1016A00028B1C8F80070BFF34F8FBFF36F8F01F000
:1016B000FEFE01200BE7000004ED00E0A06B401EE1
:1016C000A063206810B901F087F9606020690028E4
:1016D000EDD004F1100001F022F80128E1D0E6E796
:1016E000059808B11EB106E001F0E1FE1FE0684672
:1016F00001F081F8012601F0DAFE00F060FC01F053
:10170000BAFE606C401C01D1C4F84490A06C401C2F
:1017100001D1C4F8489001F0CAFE05A9684601F05D
:1017200079F830B12046FFF706FE00F0D4FB002028
:10173000CDE601F0A0FEA06B30B1002501F0B7FEB0
:10174000F5B1206810B108E00125F7E701F093FE3C
:10175000606801F0B1F801F0AAFE04F124000599D7
:1017600000F047FF2046FFF7E6FD00F0B4FB00283D
:1017700083D1C8F80070BFF34F8FBFF36F8F7CE742
:101780002046FFF7D8FD00F0A6FB76E770B50D46C2
:10179000040009D001F07DF8616888420CD1E0684E
:1017A000401CE060012070BD502080F31188BFF321
:1017B0004F8FBFF36F8FFEE700232A46194620465E
:1017C000FFF729FF0128EED1E168491CE16070BDF7
:1017D00010B50C4648B184420FD9502080F31188CF
:1017E000BFF34F8FBFF36F8FFEE7502080F3118858
:1017F000BFF34F8FBFF36F8FFEE702220021FFF789
:1018000068FD08B1846310BD502080F31188BFF3D8
:101810004F8FBFF36F8FFEE72DE9F0411E4617464D
:101820008846040003D0B8F1000F08D011E0502022
:1018300080F31188BFF34F8FBFF36F8FFEE7206CEB
:1018400038B1502080F31188BFF34F8FBFF36F8FF3
:10185000FEE7022E0AD1E06B012807D0502080F36A
:101860001188BFF34F8FBFF36F8FFEE701F044FE87
:101870005020EFF3118580F31188BFF34F8FBFF332
:101880006F8FA06BE16B884205D3022E03D000203E
:1018900085F3118839E5324641462046FFF77DFD44
:1018A000A06C401C04D0A06C401CA0640120EFE799
:1018B000606A0028FAD004F1240000F030FF00280C
:1018C000F4D0002FF2D001203860EFE770B50E465B
:1018D000040009D0206C78B1502080F31188BFF348
:1018E0004F8FBFF36F8FFEE7502080F31188BFF357
:1018F0004F8FBFF36F8FFEE7206848B9606838B13B
:10190000502080F31188BFF34F8FBFF36F8FFEE736
:1019100001F0F2FD5020EFF3118580F31188BFF341
:101920004F8FBFF36F8FA06BE16B884218D2A06B13
:10193000401CA063A06C401C04D0A06C401CA064A0
:1019400001200EE0606A0028FAD004F1240000F0C3
:10195000E6FE0028F4D0002EF2D001203060EFE740
:10196000002085F3118870BD2DE9F04116460F4621
:10197000040001D047B111E0502080F31188BFF37B
:101980004F8FBFF36F8FFEE7206C38B1502080F38C
:101990001188BFF34F8FBFF36F8FFEE701F0ACFDEF
:1019A0005020EFF3118580F31188BFF34F8FBFF301
:1019B0006F8FA06B68B139462046FFF719FEA06B08
:1019C000401EA063606C401C06D0606C401C6064CC
:1019D000012085F3118898E420690028F8D004F1EB
:1019E000100000F09CFE0028F2D0002EF0D0012064
:1019F0003060EDE72DE9F0410E46040019D006B342
:101A0000206C40B301F078FD5020EFF3118580F396
:101A10001188BFF34F8FBFF36F8FA06B30B131468A
:101A20002046E768FFF7E4FD0120E76085F31188B1
:101A30006BE4502080F31188BFF34F8FBFF36F8F9B
:101A4000FEE7006C38B1502080F31188BFF34F8F50
:101A5000BFF36F8FFEE7502080F31188BFF34F8FE5
:101A6000BFF36F8FFEE710B5040006D001F003FD51
:101A7000A46B01F01CFD204610BD502080F311889E
:101A8000BFF34F8FBFF36F8FFEE710B5040008D090
:101A900001F0F1FCD4E90E10441A01F008FD2046D3
:101AA00010BD502080F31188BFF34F8FBFF36F8FAD
:101AB000FEE708B1806B7047502080F31188BFF3B8
:101AC0004F8FBFF36F8FFEE73A4A002102EBC1034D
:101AD0005B68834203D1002042F831007047491C03
:101AE0000829F3D3704710B5040006D0FFF7ECFFC8
:101AF0002046BDE8104001F0F1BB502080F3118872
:101B0000BFF34F8FBFF36F8FFEE7C06C7047C164A8
:101B1000704790F85000704718B1806B48B10020B2
:101B20007047502080F31188BFF34F8FBFF36F8F42
:101B3000FEE70120704728B1816BC06B814209D15B
:101B400001207047502080F31188BFF34F8FBFF3FF
:101B50006F8FFEE70020704710B5164B002253F838
:101B600032401CB1521C082AF9D310BD43F8321080
:101B700003EBC201486010BD70B515460E46044621
:101B800001F079FC616C0020491C00D16064A16CFB
:101B9000491C00D1A06401F08AFCA06B28B92A4638
:101BA000314604F1240000F08CFD2046BDE8704071
:101BB000FFF7C1BB9C0000202DE9FF5F5FEA000B2F
:101BC000DDE90F900E9E15468A4609D0052E0FD3EB
:101BD000502080F31188BFF34F8FBFF36F8FFEE764
:101BE000502080F31188BFF34F8FBFF36F8FFEE754
:101BF000A900884610B9084601F018FB07000FD06D
:101C0000582001F013FB040006D0A52241463846B7
:101C1000276301F0B7FC04E0384601F05FFB00E009
:101C20000024002C77D06FF00300216B00EB8500BF
:101C3000084420F00707780707D0502080F3118868
:101C4000BFF34F8FBFF36F8FFEE75146354600203D
:101C500022180B5C82F834300A5C12B1401C0A284E
:101C6000F6D3002084F83D00052D00D304258046DE
:101C7000E562C4E91258201DFFF7B3FA04F1180019
:101C8000FFF7AFFA2461C5F105016462A161C4F8F0
:101C9000508084F8548059463846039A01F056FB28
:101CA0002060B9F1000F01D0C9F8004001F0E3FB5A
:101CB000FE4FB868401CB8603868DFF8F48310B194
:101CC000786948B32EE03C60B86801282AD1002525
:101CD00005EB850108EB8100FFF778FA6D1C052DF7
:101CE000F6D3F3486430FFF771FAF1487830FFF724
:101CF0006DFAEF488C30FFF769FAED48A030FFF736
:101D000065FAEB48B430FFF761FAE94864303863AC
:101D10001430786306E02AE0FFE73868C06AB04212
:101D200000D83C60786A0121401C78622064E06A37
:101D30003A6981401143396100EB800108EB810071
:101D4000211DFFF751FA012401F0B1FB786950B170
:101D50003868C06AB04206D2D64920070860BFF38F
:101D60004F8FBFF36F8F04B02046BDE8F09F4FF058
:101D7000FF34F8E770B5044601F07DFBCB4D04B9A4
:101D80002C68201DFFF754FA58B9E06AC84A00EBE6
:101D9000800152F8211021B901218140286988432E
:101DA0002861A06A18B104F11800FFF741FAC04891
:101DB000211DA030FFF718FA6868401C6860686A47
:101DC000401C686201F073FB6869002814D0286821
:101DD000844212D1E86A38B1502080F31188BFF3F1
:101DE0004F8FBFF36F8FFEE7B2494FF0805008600E
:101DF000BFF34F8FBFF36F8F70BD01F03CFB00F05E
:101E0000CDFFBDE8704001F052BB2DE9F041A74F76
:101E10000025F86A18B1B869401CB86153E0F86849
:101E2000401CF860FE689EB9386B006838B15020DD
:101E300080F31188BFF34F8FBFF36F8FFEE7386BCE
:101E4000796B39637863386A401C386200F0A6FF0A
:101E5000B86ADFF85C82864209D3386B006890B1BB
:101E6000386BC068C468606886420FD2B862386850
:101E7000C06A00EB800158F82100012800D9012533
:101E8000B86900B321E04FF0FF30EFE7201DFFF706
:101E9000CFF9A06A18B104F11800FFF7C9F9E06A98
:101EA00001213A6981401143396100EB800108EB5F
:101EB0008100211DFFF798F9E06A3968C96A8842F4
:101EC000CBD30125C9E7FFF76AF8F86900B101250E
:101ED0002846BDE8F0812DE9F047744D0027E86AF7
:101EE00038B101F0C8FAE86A401EE862E86A40B119
:101EF00048E0502080F31188BFF34F8FBFF36F8FFE
:101F0000FEE7A8686A498C310126D8B3DFF8A091B2
:101F10008846D8F80010E9B1D8F80C00C46804F17C
:101F20001800FFF785F9201DFFF782F9E06A2A699A
:101F300006FA00F11143296100EB800109EB8100F1
:101F4000211DFFF751F9E06A2968C96A8842E0D388
:101F5000EE61DEE7A86938B909E0FFF756FF00B186
:101F6000EE61A869401EA861A8690028F5D1E8695A
:101F7000012807D14F49012700070860BFF34F8FA1
:101F8000BFF36F8F01F093FA3846BDE8F08770B564
:101F9000464D044628684460E8682968844205D2B2
:101FA000686BBDE87040091DFFF72AB9286B091D51
:101FB000FFF726F9A86A844200D2AC6270BD3B48A4
:101FC000C16A491CC162704770B50C4606004FF0EB
:101FD00000020BD094B1354DE86AB8B1502080F3BF
:101FE0001188BFF34F8FBFF36F8FFEE7502080F350
:101FF0001188BFF34F8FBFF36F8FFEE7502080F340
:102000001188BFF34F8FBFF36F8FFEE7FFF7D7FF46
:10201000E86833681C44834202D9A34202D804E032
:10202000A34201D8844200D9012234607AB12868E1
:10203000001DFFF7FDF838B9286890F82C10012032
:1020400088402969814329612046FFF7A0FFFFF7F7
:1020500042FF002807D117494FF080500860BFF3B6
:102060004F8FBFF36F8F70BD70B502002AD00F4C39
:10207000E06A38B1502080F31188BFF34F8FBFF36F
:102080006F8FFEE7FFF79BFFE06885182068001D53
:10209000FFF7CEF838B9206890F82C10012088405E
:1020A000216981432161284606E0000030000020BC
:1020B000DC00002004ED00E0FFF769FFFFF70BFFF5
:1020C000002807D1FA494FF080500860BFF34F8FC6
:1020D000BFF36F8F70BD10B5044601F0CCF90CB999
:1020E000F4480468E46A01F0E2F9204610BD10B536
:1020F000044601F001FA5020EFF3118180F31188BA
:10210000BFF34F8FBFF36F8F0CB9EA480468E06AE2
:1021100081F3118810BD2DE9F04100260D460446DB
:10212000052907D3502080F31188BFF34F8FBFF3E9
:102130006F8FFEE701F09FF9DE4F04B93C68A06C99
:10214000A8423FD03968854206D98C4207D0396809
:10215000C96AA94202D902E08C4200D10126E16A93
:102160008846884200D1E562A564A069002802DBA8
:10217000C5F10500A061D04D08EB8800616905EB51
:102180008000814215D1201DFFF752F8012120B9AE
:102190003A6901FA08F082433A61E06A3A6981409B
:1021A0001143396100EB800005EB8000211DFFF732
:1021B0001BF83EB1BE494FF080500860BFF34F8F0F
:1021C000BFF36F8FBDE8F04101F071B910B5B94CA4
:1021D000E06A10B10120E06110BD0020E0612068DC
:1021E0004FF0A532006B0168914208D141689142DD
:1021F00005D18168914202D1C068904204D0216823
:1022000020683431FEF7C9FE2069AB49B0FA80F08E
:10221000C0F11F0000EB800051F820206AB101EBF3
:10222000800000F10802416849684160914201D193
:1022300049684160C868206010BD502080F3118853
:10224000BFF34F8FBFF36F8FFEE770B5044601F009
:1022500012F9984D04B92C68201DFEF7E9FF58B912
:10226000E06A954A00EB800152F8211021B9012162
:102270008140286988432861A06A18B104F11800D8
:10228000FEF7D6FF8C48211DB430FEF7ADFF01F0FC
:102290000EF92868844268691FD190B1E86A38B1A4
:1022A000502080F31188BFF34F8FBFF36F8FFEE78D
:1022B0007F494FF080500860BFF34F8FBFF36F8F9F
:1022C00070BD7D48A968B4300068884202D1002002
:1022D000286070BDBDE8704078E70028F9D001F0B3
:1022E000CAF800F05BFDBDE8704001F0E0B80021E5
:1022F00058B1714B4269B4339A420FD1806AA3F14D
:10230000280290420AD040B108E0502080F31188A2
:10231000BFF34F8FBFF36F8FFEE701210846704771
:1023200070B504000BD0634D2868844231D001F0B1
:10233000A2F82046FFF7DBFF012808D025E0502057
:1023400080F31188BFF34F8FBFF36F8FFEE7201D1F
:10235000FEF76EFFE06A01212A698140114329617D
:10236000554900EB800001EB8000211DFEF73CFF8A
:10237000E06A2968C96A884207D34D494FF0805006
:102380000860BFF34F8FBFF36F8FBDE8704001F05F
:102390008EB870BD2DE9F0410026040010D001F088
:1023A000ABF85020EFF3118580F31188BFF34F8F06
:1023B000BFF36F8F2046FFF79AFF012808D026E071
:1023C000502080F31188BFF34F8FBFF36F8FFEE76C
:1023D000384FF86A20B1384804F118018C3014E005
:1023E000E06A3968C96A884200D30126201DFEF7D9
:1023F0001FFFE06A01213A698140114339612E498A
:1024000000EB800001EB8000211DFEF7EDFE85F35F
:10241000118830465DE5284E4FF08054244D00F081
:10242000CAFC3068012804D92C60BFF34F8FBFF37A
:102430006F8FFEF7B1FDF2E71FB500240094019401
:102440000294234682221DA11E480394FFF7B4FB89
:10245000012803D100F0B5FD012809D0002819D1C9
:10246000502080F31188BFF34F8FBFF36F8FFEE7CB
:10247000502080F31188BFF34F8FBFF36F8F0D484B
:102480004FF0FF31816201214161C460BDE81F400E
:1024900000F07BBF1FBD502080F31188BFF34F8F2A
:1024A000BFF36F8F03490020486100F0D6BF0000E2
:1024B00004ED00E030000020DC00002049444C45E1
:1024C0000000000017240008F748C068704710B5E6
:1024D00001F012F8F448C06810BDF34880687047F6
:1024E0002DE9F04781460B680020002B3BD04B685C
:1024F00001F108065B684B60B34201D15C684C6037
:102500004B684FF0000ADF684B685B684B60B34272
:1025100001D15C684C604B6809EB4015DB6803F146
:102520003404C5E900341C6CAC602A73DC6A2C618D
:10253000032A03D19C6A0CB102242C739C6CC5E95C
:10254000054A1C6B4FF0000C02E0641C0CF1010CFE
:1025500094F80080B8F1A50FF7D04FEA9C04401C16
:10256000AC83BB42D0D110E52DE9F04717460A46AF
:10257000064600240525FFF722FDDFF82C83D8F856
:102580000800824231D3DFF824936D1E05EB8501EC
:1025900009EB810106EB44100122FFF7A1FF04447F
:1025A000002DF2D106EB441002224546D8F8301037
:1025B000FFF796FF044406EB44100222696BFFF715
:1025C0008FFFBA49044406EB44100422A031FFF700
:1025D00087FFB649044406EB44100322B431FFF7E9
:1025E0007FFF04440FB100203860FFF774FC2046E1
:1025F000CBE470B50D4650B1AB4C21681831FEF7F5
:10260000FFFD2068001DFEF713FE40B10FE05020D3
:1026100080F31188BFF34F8FBFF36F8FFEE7206801
:1026200090F82C1001208840216981432161681CA9
:1026300004D0E0682844BDE87040A8E421689B48C5
:10264000BDE87040B430091DFEF7CEBD70B515462B
:1026500080B1954CE26AAAB1226841F000419161D3
:1026600021681831FEF7C0FD2068001DFEF7E0FD6F
:1026700080B117E0502080F31188BFF34F8FBFF374
:102680006F8FFEE7502080F31188BFF34F8FBFF3A9
:102690006F8FFEE7206890F82C1001208840216998
:1026A00081432161681C04D0E0682844BDE8704083
:1026B0006DE421687D48BDE87040B430091DFEF727
:1026C00093BD70B515460E4650B1774C2168183150
:1026D000FEF78AFD2068001DFEF7AAFD40B10FE05D
:1026E000502080F31188BFF34F8FBFF36F8FFEE749
:1026F000206890F82C1001208840216981432161D5
:10270000012D04D0E0683044BDE870403FE421680A
:102710006648BDE87040B430091DFEF765BD2DE97F
:10272000F041C068C468ACB104F118000746FEF778
:102730007FFD5D4DE86A0126A0B15C4839468C30CA
:10274000FEF752FDE06A2968C96A88421AD9012059
:10275000EE615FE6502080F31188BFF34F8FBFF327
:102760006F8FFEE7201DFEF763FDE06A2A6906FA17
:1027700000F1114329614D4900EB800001EB80001D
:10278000211DDDE7002045E670B5474DEA6A02B33A
:1027900041F000410160C4681CB3FEF749FD201DF3
:1027A000FEF746FDE06A01262A6906FA00F11143A8
:1027B00029613E4900EB800001EB8000211DFEF7FE
:1027C00013FDE06A2968C96A884212D90120EE61C6
:1027D00070BD502080F31188BFF34F8FBFF36F8F10
:1027E000FEE7502080F31188BFF34F8FBFF36F8F48
:1027F000FEE7002070BD28B12B490A6A0260C96853
:1028000041607047502080F31188BFF34F8FBFF3B2
:102810006F8FFEE770B50D46040019D005B300F0C8
:102820002AFE214AD06829684B1C0FD02368126AFF
:10283000934202D0626882421AD96268801A884242
:1028400016D2081A28602046FFF7D5FF002410E0B2
:10285000502080F31188BFF34F8FBFF36F8FFEE7D7
:10286000502080F31188BFF34F8FBFF36F8FFEE7C7
:10287000012400F01CFE204670BD0B490120C861F8
:102880007047002800D0406C7047002800D0416499
:1028900070470548006870470348416941B1C06A04
:1028A00040B100207047000030000020DC00002014
:1028B0000120F7E70220F5E770B5040039D0F84DA4
:1028C000E06A2968C96A884233D2A069002804DB1B
:1028D0002868C06AC0F10500A061E06AF14E00EB13
:1028E0008000616906EB800081421FD1201DFEF748
:1028F0009FFC012150B9E06A00EB800256F82220CB
:1029000022B92A6901FA00F082432A612868C06A64
:10291000E0622A6981401143296100EB800006EBE7
:102920008000211DBDE87040FEF75EBC2868C06ACB
:10293000E06270BD70B504004FF0000041D0D84D8A
:1029400029688C4207D0502080F31188BFF34F8F45
:10295000BFF36F8FFEE7E16C71B1491EE164A36CB8
:10296000E26A9A422DD000292BD1201DFEF760FC8F
:10297000CC49012240B112E0502080F31188BFF30E
:102980004F8FBFF36F8FFEE7E06A00EB800351F8D3
:10299000233023B92B6902FA00F083432B61A06C2A
:1029A000E062C0F10500A061E06A2B6982401A4331
:1029B0002A6100EB800001EB8000211DFEF714FC72
:1029C000012070BDB64908680A688069D26A096842
:1029D000C2F105028A6165E7B149086818B1086863
:1029E000C26C521CC26408685CE72DE9F0410C46D9
:1029F000064600F040FDAA4D2868006DF0B9286831
:102A0000012780F85470CCB12868001DFEF710FC37
:102A100030B9286890F82C0087402869B8432861AD
:102A2000601C17D0E8682044FFF7B1FA9E494FF0C8
:102A300080500860BFF34F8FBFF36F8F00F037FDFA
:102A400000F019FD2868046D002274B14EB12868A9
:102A500002650AE029689348091DB430FEF7C4FBFB
:102A6000E4E72968086D401E0865286880F854204E
:102A700000F01DFD2046CDE42DE9F0411C46164630
:102A80008846074600F0F7FC854D286890F854000A
:102A9000022822D02868016DB94301652868012702
:102AA00080F85470CCB12868001DFEF7C1FB30B926
:102AB000286890F82C0087402869B8432861601C7A
:102AC00026D0E8682044FFF762FA77494FF080503B
:102AD0000860BFF34F8FBFF36F8F00F0E8FC00F08A
:102AE000CAFC16B12868006D3060286890F8540060
:102AF000012814D02868016D21EA0801016501242C
:102B00002968002081F8540000F0D1FC204681E4BF
:102B100029686448091DB430FEF766FBD5E7002438
:102B2000EEE72DE9F0411F4690460D46012690B193
:102B3000044600F0A0FC0FB1206D386094F85400FA
:102B4000022184F85410B8F1050F16D2DFE808F01E
:102B5000150B0E141200502080F31188BFF34F8F15
:102B6000BFF36F8FFEE7216D294301E0216D491C02
:102B7000216502E0022803D02565012802D02AE061
:102B8000002628E0201DFEF753FB454DE06A012199
:102B90002A69814011432961424900EB800001EB21
:102BA0008000211DFEF720FBA06A38B1502080F381
:102BB0001188BFF34F8FBFF36F8FFEE7E06A29687C
:102BC000C96A884207D938494FF080500860BFF37E
:102BD0004F8FBFF36F8F00F06AFC30461AE42DE987
:102BE000F0471F46DDF8209092460D4604004FF056
:102BF00001081AD000F080FC5020EFF3118680F31A
:102C00001188BFF34F8FBFF36F8F0FB1206D386006
:102C100094F85400022184F85410BAF1050F16D22A
:102C2000DFE80AF0150B0E141200502080F3118813
:102C3000BFF34F8FBFF36F8FFEE7216D294301E094
:102C4000216D491C216502E0022803D02565012879
:102C500003D020E04FF000081DE0A06A38B15020FA
:102C600080F31188BFF34F8FBFF36F8FFEE70C4DDA
:102C7000E86A0127D0B10B4804F118018C30FEF747
:102C8000B3FAE06A2968C96A884204D9B9F1000F29
:102C900001D0C9F8007086F31188404663E4000053
:102CA00030000020DC00002004ED00E0201DFEF7D5
:102CB000BFFAE06A2A6907FA00F111432961524913
:102CC00000EB800001EB8000211DD8E72DE9F041E9
:102CD0000F46040015D000F00FFC5020EFF31186D2
:102CE00080F31188BFF34F8FBFF36F8F94F85400B8
:102CF000022184F85410216D491C2165012808D057
:102D000024E0502080F31188BFF34F8FBFF36F8F03
:102D1000FEE7A06A38B1502080F31188BFF34F8FCF
:102D2000BFF36F8FFEE7394DE86A4FF0010880B1BD
:102D3000354804F118018C30FEF756FAE06A29682C
:102D4000C96A884202D90FB1C7F8008086F311889A
:102D5000FFE4201DFEF76CFAE06A2A6908FA00F128
:102D600011432961284900EB800001EB8000211DFF
:102D7000E2E710B508B925480068044600F07BFB7F
:102D800094F85400022804D0002400F090FB204660
:102D900010BD002084F854000124F6E71B48016BA5
:102DA000096829B1016BC968C9684968816279E518
:102DB0004FF0FF31FAE770B5134E144DA0361FE007
:102DC000FFF7FDF8306820B10024FFF784F8BCB9A4
:102DD00001E00124F9E700F04EFBF068C468201D13
:102DE000FEF726FAA868401EA8606868401E686062
:102DF00000F05DFB206B00F071FA204600F06EFAE7
:102E000068680028DCD170BDDC00002030000020A4
:102E100070B500244160F94D0061914206D8D11A85
:102E20008269914206D2011DE86807E09A4203D206
:102E3000994201D3012403E0011DA868FEF7E0F9DF
:102E4000204670BDFEB51F460300089E4FF00000EF
:102E500013D0EA4D2C68002C0ED08DE80E00062908
:102E600015DAFFF719FD02284FF000030DD00022FC
:102E700069462868FEF7C8FAFEBD502080F3118825
:102E8000BFF34F8FBFF36F8FFEE73246F0E70023AB
:102E90003A4669462046FEF7BFFCFEBD30B585B018
:102EA000D64D4CE00198002849DB039C606910B1C5
:102EB000201DFEF7BDF904A800F00CF902460198A8
:102EC0000A283CD2DFE800F00505053B2738050558
:102ED0003B270298A169034601442046FFF798FF6B
:102EE00001282CD1616A20468847E069012826D153
:102EF000002000900298A16900234218194620463C
:102F0000FFF7A0FFD8B9502080F31188BFF34F8F8F
:102F1000BFF36F8FFEE70298A06128B181181346B6
:102F20002046FFF775FF0AE0502080F31188BFF3B9
:102F30004F8FBFF36F8FFEE7204600F0CFF90023DD
:102F40001A4601A92868FEF766FB0028AAD105B039
:102F500030BDAA4CA068016839B1002139B1002008
:102F600000F0CAF8FFF79AFFF4E70121F6E7C0681E
:102F70000068F5E710B500F07EFAA04C2068A0B913
:102F80009F48FEF723F99E481430FEF71FF99C482E
:102F9000A0601430E06000220C210A20FEF799F9AD
:102FA000206030B197A1FEF7D7FDBDE8104000F0DA
:102FB0007EBA502080F31188BFF34F8FBFF36F8F1D
:102FC000FEE71FB5FFF7D6FF8C48006870B1002000
:102FD0000221CDE900100290034603904FF4827263
:102FE0008AA18C48FEF7E8FD002807D1502080F325
:102FF0001188BFF34F8FBFF36F8FFEE704B010BD92
:103000002DE9F0471E46DDF8209017460D0080465A
:1030100012D02C2000F00AF904000AD0FFF7AAFF12
:10302000C4F80080C4E90657C4E90869201DFEF70A
:10303000D8F82046BDE8F087502080F31188BFF310
:103040004F8FBFF36F8FFEE708B1006870475020C5
:1030500080F31188BFF34F8FBFF36F8FFEE710B57A
:10306000040005D000F007FA606948B1012408E0C7
:10307000502080F31188BFF34F8FBFF36F8FFEE7AF
:10308000002400F014FA204610BD10B5040006D04C
:1030900000F0F1F9246A00F00AFA204610BD502031
:1030A00080F31188BFF34F8FBFF36F8FFEE770B5CA
:1030B0000D46040006D000F0DEF92562BDE8704040
:1030C00000F0F5B9502080F31188BFF34F8FBFF3A4
:1030D0006F8FFEE770B50546FFF7F6F9474E0446D9
:1030E0007068844203D200F05EF8012000E0002006
:1030F00028602046746070BD2DE9FC410E460546EF
:10310000FEF75DFF01A8FFF7E5FF0446019818B13F
:10311000FEF7E1FEBDE8FC81384FAEB1F86800680B
:10312000B0B30026291B32463868FEF725FDFEF7AE
:10313000D2FE0028EED138494FF080500860BFF32E
:103140004F8FBFF36F8FE5E7A542EBD8FEF7C3FEC5
:10315000B8682646C068C468201DFEF769F8E069B3
:10316000012811D1A0692B46411932462046FFF7AC
:103170004FFE012808D100200346014600902A4650
:103180002046FFF75FFE20B1616A20468847C1E70D
:1031900007E0502080F31188BFF34F8FBFF36F8F8C
:1031A000FEE70126BEE7F8B5144E1FE0C068C4680C
:1031B0000568201DFEF73CF8616A20468847E069F3
:1031C000012813D1A0692844A84206D9246160606F
:1031D000211DB068FEF714F808E000200346014600
:1031E00000902A462046FFF72DFEB8B1B06801686E
:1031F0000029DBD1F168C6E90210F8BD68000020A3
:10320000A4010020546D725100000000546D722022
:1032100053766300532F000804ED00E0502080F344
:103220001188BFF34F8FBFF36F8FFEE72DE9F04199
:1032300004460025FEF7C3FE384E06F1080170680B
:1032400001F1080360B93648002720F00700C1E902
:103250000007344AC3E90072C0E9003201207060FF
:103260003CB10834600704D004F00700C0F1080046
:1032700004442C4A601E521E904227D2274A0968F5
:10328000083201E00A4601464868A04202D20868B6
:103290000028F7D1994219D015680868106048686D
:1032A0000835001B10280DD90B1958601B484C60BD
:1032B00008305C6800E0104602685768A742FAD3FD
:1032C0001A60036048683168081A3060FEF703FE30
:1032D0000DB9FDF763FE2846BDE8F08110B5002862
:1032E00017D0A0F10804FEF76AFE0C4960680831A7
:1032F00000E011460A6853688342FAD32260074807
:103300000C606168026811440160BDE81040FEF77E
:10331000E2BD10BD0148006870477047780000208A
:10332000D4010020F82B010086484068401C4FF073
:10333000500080F3118804D0BFF34F8FBFF36F8F1D
:10334000FEE7BFF34F8FBFF36F8FFEE710B5031F8C
:103350004FF080741C601B1F1960191F7A4B0B60A3
:1033600014390A60091F6FF0020244380A6010BD68
:1033700076484FF47A710068B0FBF1F14FF0E0202D
:10338000491E41610721016170471CB57048016801
:10339000704A914207D1502080F31188BFF34F8FBC
:1033A000BFF36F8FFEE700686A49491E884207D164
:1033B000502080F31188BFF34F8FBFF36F8FFEE76C
:1033C000654908780190FF20087008788DF80000A2
:1033D0009DF800009DF8002000F0F000904207D01A
:1033E000502080F31188BFF34F8FBFF36F8FFEE73C
:1033F0009DF80000534A00F05000107007209060C4
:1034000007E09068401E90609DF8000040008DF835
:1034100000009DF800000006F3D4107A000200F4CA
:10342000E06090600198087049482030016841F4DC
:1034300070010160016841F070410160FFF798FF81
:1034400000205060FCF7D2FE4448016841F0404142
:103450000160FCF7BBFE00201CBD3A484068B0F597
:103460007A7F07D0502080F31188BFF34F8FBFF3CE
:103470006F8FFEE77047502080F31188BFF34F8FA6
:10348000BFF36F8F2F494868401C486001280DD159
:103490002F48001D006810F0FF0F07D0502080F368
:1034A0001188BFF34F8FBFF36F8FFEE77047254939
:1034B000486828B1401E486001D180F311887047E8
:1034C000502080F31188BFF34F8FBFF36F8FFEE75B
:1034D00010B5502080F31188BFF34F8FBFF36F8F6B
:1034E000FEF793FC20B11A494FF08050091D086087
:1034F000002080F3118810BD10B5FCF7AFFE114914
:1035000010280ED300F1E02090F8F0030A789042E2
:1035100007D2502080F31188BFF34F8FBFF36F8F16
:10352000FEE70B480C300068896800F4E0608842D0
:1035300007D9502080F31188BFF34F8FBFF36F8FEF
:10354000FEE710BD90000020293300081C00002079
:1035500000ED00E071C20F4100E400E034EF00E054
:1035600040EA01039B0703D009E008C9121F08C005
:10357000042AFAD203E011F8013B00F8013B521E85
:10358000F9D27047D2B201E000F8012B491EFBD2FC
:1035900070470022F6E710B513460A46044619465E
:1035A000FFF7F0FF204610BD30B50B460146002066
:1035B0002022012409E021FA02F59D4205D303FAF5
:1035C00002F5491B04FA02F52844151EA2F1010276
:1035D000F1DC30BD064C074D06E0E06840F0010329
:1035E00094E8070098471034AC42F6D3FCF7D8FDB6
:1035F000A0370008C03700080FB4084B10B504A965
:1036000002AA039800F01CF8044602A9002000F06A
:10361000C1F8204610BC5DF814FB00009537000887
:1036200002E008C8121F08C1002AFAD1704770478B
:10363000002001E001C1121F002AFBD170470000E9
:103640002DE9FF4F89B09B460446002506E025285A
:103650000BD05A460B999047641C6D1C20780028AB
:10366000F5D10DB02846BDE8F08F0027B8460122FD
:10367000474900E0074314F8013F203B02FA03F0FA
:103680000842F7D120782E2819D114F8010F47F0FD
:1036900004072A280ED06FF02F022078A0F1300105
:1036A00009290CD808EB880102EB410100EB010865
:1036B000641CF2E70A98641C50F8048B0A90207886
:1036C0000028CED0642808D0692806D075281ED0DE
:1036D0005A460B9990476D1C58E00A994FF00A0919
:1036E00001C90A91002802DA40422D2102E0390581
:1036F00004D52B218DF82010012103E0F90704D017
:103700002021F7E78A4608AE0DE00021FAE70A9982
:103710004FF00A0901C90A91F7E74946FFF744FF4C
:10372000303106F8011D0028F7D1ADEB060000F19D
:103730002009780701D44FF00108C84502DDA8EB45
:10374000090000E000208046002706E008A85A464D
:10375000C05D0B9990476D1C7F1C5745F6DB04E05C
:1037600030205A460B9990476D1CB8F10001A8F122
:103770000108F5DC05E016F8010B5A460B99904755
:103780006D1CB9F10001A9F10109F4DC641C65E7C5
:10379000092801000A68531C0B6010707047000074
:1037A000C0370008000000209C0000002036000800
:1037B0005C3800089C0000203431010030360008DD
:1037C00000000000010203040102030406070809C7
:1037D00000000000000000000000000000E1F5050E
:1037E00000000000000000000102030406070809B1
:1037F00000000000000000000000000000000000C9
:1038000000000000000000000000000000000000B8
:1038100000000000000000000000000000000000A8
:103820000000000000000000000000000000000098
:103830000000000000000000F82B01000000000064
:103840000000000000000000000000000000000078
:0C38500000000000AAAAAAAA00000000C4
:040000050800019955
:00000001FF
