:020000040800F2
:1000000028040020AD010008AD0C0008AF0C00086A
:10001000B10C0008B30C0008B50C0008000000008B
:10002000000000000000000000000000B70C000805
:10003000B90C000800000000BB0C0008BF0C000851
:10004000C7010008C7010008C7010008C701000870
:10005000C7010008C7010008C7010008C701000860
:10006000C7010008C7010008C7010008C701000850
:10007000C7010008C7010008C7010008C701000840
:10008000C7010008C7010008C70100080000000000
:10009000000000000000000000000000C701000890
:1000A000C7010008C7010008C7010008C701000810
:1000B000C7010008C7010008C7010008C701000800
:1000C000C7010008C7010008C7010008C7010008F0
:1000D000C7010008C7010008C701000800000000B0
:1000E000810C0008C7010008C701000800000000DB
:1000F000000000000000000000000000C701000830
:1001000000000000C7010008C7010008C70100087F
:1001100000000000000000000000000000000000DF
:10012000C7010008C7010008C7010008C70100088F
:10013000C7010008000000000000000000000000EF
:10014000000000000000000000000000C7010008DF
:10015000C7010008C7010008C7010008C70100085F
:10016000C7010008C70100080000000000000000EF
:10017000000000000000000000000000000000007F
:1001800000000000C701000800000000000000009F
:10019000C7010008C7010008DFF80CD000F050FECE
:1001A00000480047630C00082804002006488047E8
:1001B00006480047FEE7FEE7FEE7FEE7FEE7FEE74C
:1001C000FEE7FEE7FEE7FEE7C90C0008990100081C
:1001D0002849084328490860704730B50F23C27882
:1001E00001780125FAB1244A126801F1E02102F4F4
:1001F000E062C2F5E062C2F30722C2F10404D34018
:100200004278A24084781C401443220181F80024E3
:10021000007800F01F018D404009800000F1E020CF
:10022000C0F8005130BD01F01F0085404809800032
:1002300000F1E020C0F8805130BD104A1140014368
:100240000D48001F016070470B4A121D00291168FC
:1002500001D0014300E08143116070474FF0E0217D
:100260000428086903D020F004000861704740F0BA
:100270000400FAE70000FA050CED00E080FFFF1F24
:10028000F648016841F001010160F44A002108329A
:1002900011600268F24B1A400260031DF14A1A60B5
:1002A000EE4BF14A84331A60EE4A103A1B1D1A6075
:1002B000026822F480220260E8480C300160181DB8
:1002C00001607047E5490022891C0A700870704778
:1002D00002460020510901290CD002290CD0DF4927
:1002E0007431096802F01F02012393400B4200D0D1
:1002F00001207047D949F4E7D8497031F1E718B5C2
:1003000000204FF4A04400903120FFF7E1FF009956
:10031000491C0091A14201D00028F5D03120FFF7FF
:10032000D7FF002800D0012018BDCC4A116821F069
:10033000F80141EAC00010607047CC49086070477E
:10034000C649002270310A700A70012802D00428C0
:1003500001D1052008707047C5490860704741EA1F
:1003600082115A0810B5C34B029C03EB02421143A1
:10037000014341EA0460B949091D086010BDBB4949
:1003800008667047800140EA0170B4491043843127
:1003900008607047B54988667047800140EA01608F
:1003A000AE4940EA0270883108607047AF4908677B
:1003B0007047AE49C8647047A84B08331A680843B1
:1003C00022F0EC62104318607047A44B08331A689F
:1003D000084322F078421043186070479F4A083261
:1003E000116821F003010143116070479B480830F8
:1003F000006800F00C007047984A0832116821F03C
:10040000F001014311607047944A0832116821F4E9
:10041000E051014311607047904A0832116821F49D
:10042000604141EAC0001060704770B58B4B0833E3
:100430001968914C11F00C0104D06610042903D006
:10044000082903D004601BE0066019E0834A121DEE
:100450001168C1F38055116801F03F0115B1B6FB79
:10046000F1F101E0B4FBF1F114681268C4F38814EF
:100470006143C2F30142521C5200B1FBF2F1016030
:1004800019680F2202EA11117C4A545C0168E140AC
:1004900041601C68072505EA9424145D21FA04F4E0
:1004A00084601B6805EA5333D25CD140C16070BDE3
:1004B000C0F30121032908D1684B08331968704A39
:1004C00021F4F81102400A431A60644970310A6845
:1004D000C0F30B0002430A60704765494439086065
:1004E000704763494039086070476049C1F85C0152
:1004F00070475A4A8C32116821F44011014311604F
:100500007047564A8C32116821F440010143116052
:100510007047524A8C321168401E21F01F0101437E
:10052000116070474D4A8C3211686FF0FF0321F45F
:10053000F85103EB0020084310607047474A8C32A3
:10054000116821F440310143116070474D49C1F8F1
:10055000E0017047414A30320029116801D001435F
:1005600000E08143116070473C4A34320029116831
:1005700001D0014300E0814311607047374A4032A7
:100580000029116801D0014300E0814311607047E8
:10059000324A44320029116801D0014300E081430E
:1005A000116070472D4A10320029116801D00143B3
:1005B00000E0814311607047284A14320029116815
:1005C00001D0014300E0814311607047234A20328B
:1005D0000029116801D0014300E081431160704798
:1005E0001E4A24320029116801D0014300E08143F2
:1005F00011607047194A50320029116801D0014337
:1006000000E0814311607047144A54320029116898
:1006100001D0014300E08143116070470F4A60320E
:100620000029116801D0014300E081431160704747
:100630000A4A64320029116801D0014300E0814375
:1006400011607047054970310128086803D020F017
:1006500008000860704740F00800FAE700380240E0
:10066000FFFFF6EA1030002400300020000047426F
:10067000800E47420000FFFF0024F400000000202D
:10068000FFFCFF0F001047420E4A0029117801D0ED
:10069000014300E08143117070470A4867300168E8
:1006A00041F08071016070470146064A0020521EE9
:1006B00012680A4200D0012070470249491C0870A4
:1006C000704700000D380240774910B5884206D1C6
:1006D00001210846FFF766FF002101205BE0734916
:1006E000884206D101210220FFF75CFF0021022091
:1006F00051E06F49884206D101210420FFF752FFE3
:100700000021042047E06B49884206D101210820DE
:10071000FFF748FF002108203DE06749884206D1E5
:1007200001211020FFF73EFF0021102033E0634934
:10073000884206D101212020FFF734FF002120202C
:1007400029E05F49884206D101214020FFF72AFFB6
:10075000002140201FE05B49884206D10121802012
:10076000FFF720FF0021802015E05749884202D181
:10077000012184150AE05549884202D1012144151E
:1007800004E0534988420AD1012104152046FFF7AD
:1007900009FF00212046BDE81040FFF703BF10BD50
:1007A000F0B5002201274FF0030C0B6807FA02F5A1
:1007B0002B40AB422CD1066853000CFA03F4A6433D
:1007C00006600E79D0F800E09E4046EA0E0606600C
:1007D0000E79012E01D0022E12D18668A6438660C2
:1007E0004E79D0F808E09E4046EA0E0686604668DC
:1007F000AE43466045688E799640B6B23543456053
:10080000C568A543C560CC799C40C3681C43C460DF
:10081000521C102AC9D3F0BD4FF6FF7101600021B0
:10082000017141718171C171704708B541F4803225
:100830000092C261C1610099C161C169C069009043
:1008400008BD0246002012690A4200D0012070470C
:10085000006980B270470246002052690A4200D007
:1008600001207047406980B270470183704741831F
:1008700070470AB1018370474183704741617047F7
:1008800042694A40426170474B07DB0E9A40C908F3
:1008900010B500EB8100016A0F249C40A143016266
:1008A000016A1143016210BD0000024000040240D1
:1008B00000080240000C02400010024000140240F8
:1008C00000180240001C02400020024000240240A8
:1008D00000280240354900200860091D0860091DF4
:1008E0000860091D086031493148143108607047BB
:1008F00030B52E4A8379016853B313688B43136074
:10090000111D0B680468A3430B60017911440B6847
:10091000046823430B60254B083319680468A1431E
:1009200019601C1D21680568A943216041791029BF
:1009300005D011440A68006802430A6030BD196896
:10094000026811431960216800680143216030BDCD
:100950000079104402688A43026030BD00210160C2
:1009600001710C22427181717047104910310A687F
:1009700002430A60704701460C4A00201432126894
:100980000A4200D0012070470849143108607047BE
:100990000146064A0020143212680A4200D00120A3
:1009A000704702491431086070470000003C014064
:1009B000FFFF7F0010B501218C032046FFF710FEDA
:1009C0002046BDE810400021FFF70ABE1449086028
:1009D000704714490862704710B58A0721F0030474
:1009E0001149120F21440F23D1F8084893409C432A
:1009F000C1F80848D1F8083890400343C1F80838D6
:100A000010BD0849C1F8DC0070470849086070470C
:100A10000349002020310968C90500D5012070472D
:100A20000038014000002742003001400004274206
:100A300010B501210C072046FFF7C8FD2046BDE890
:100A400010400021FFF7C2BD404908627047404A8C
:100A5000116821F0E0010143116070473B490861D2
:100A600070473A49C1F8A00070473849C1F8A4005E
:100A70007047374A116821F44041014311607047C3
:100A8000324908647047314948647047304900284A
:100A9000086802D040F4402001E020F440200860C3
:100AA00070472A4900B10120C8627047274900B148
:100AB000012088627047254948627047244B10B571
:100AC0001A6840F60344A24302431A6021480268B0
:100AD00042F004020260012905D020BF016821F024
:100AE0000401016010BD30BFF8E7194B10B51A685A
:100AF00040F60344A24302431A601648026842F0DB
:100B000004020260012905D020BF016821F0040120
:100B1000016010BD30BFF8E70D48016841F00201E7
:100B200001600C48016841F00401016030BF70476A
:100B3000074A0146002052680A4200D0012070474F
:100B400003490A6842EA80000860704700000E42CC
:100B50000070004010ED00E070B586B00121022069
:100B6000FFF7F8FC01218803FFF712FD00248DF840
:100B700004408DF8064001258DF8075003204FF4FE
:100B800080568DF80500009669464648FFF708FE36
:100B90000C210120FFF720FF8DF80E508DF80C403E
:100BA00008208DF80D00029602A8FFF7A1FE28206C
:100BB0008DF810008DF811408DF812508DF81350FB
:100BC00004A8FFF70AFB06B070BD1CB520200090FA
:100BD00001208DF8040002208DF8050000208DF81A
:100BE00006008DF8070001210846FFF7B3FC6946AF
:100BF0002D48FFF7D5FD1CBD10B50120FFF762FBA6
:100C0000FFF77DFB0028FBD0FFF779FB012800D020
:100C10000020BDE81040FFF7E1BB08B58020FFF7DA
:100C2000F3FBFFF7E3FB0421022364220091FFF7AB
:100C300096FB0120FFF7A3FB3920FFF749FB0028B3
:100C4000FAD0BDE808400220FFF7C8BB10B501216B
:100C50000220FFF7F9FA30BF10BD01210846FFF767
:100C60002DBF00F031F8FFF70BFBFFF7C5FFFFF7D3
:100C7000D4FFFFF7AAFFFFF76FFFFFF7EEFFFCE7D8
:100C800010B54FF480542046FFF782FE002808D0AC
:100C900020210548FFF7F4FD2046BDE81040FFF78E
:100CA00080BE10BD00040240000002407047FEE715
:100CB000FEE7FEE7FEE7704770477047704710B5E4
:100CC000FFF7FCFF10BD0000534810B5016841F468
:100CD000700101605148016841F0010101604F4A13
:100CE00000210832116002684D4B1A400260031D5A
:100CF0004C4A1A60026822F48022026047480C3095
:100D0000016000F039F844494FF000608039086014
:100D100010BD70B5414E002208363068424B434941
:100D200010F00C0003D0042803D0082803D00B6077
:100D300018E03F4815E03948001D0468C4F38055A9
:100D4000046804F03F042DB9B3FBF4F20368C3F365
:100D500088135A430068C0F30140401C4000B2FBB6
:100D6000F0F008603068314AC0F30310121D105CC7
:100D70000A68C2400A6070BD0CB500222749009283
:100D80000192086840F4803008604FF4A04308687E
:100D900000F4003001900098401C0090019810B9B8
:100DA00000989842F3D10868800332D50120019061
:100DB0001A484030026842F0805202601D480268C2
:100DC00042F440420260154808300268026002683E
:100DD0000260026842F480520260031F164A1A60E1
:100DE0000A6842F080720A600A689201FCD5134AD0
:100DF00040F202711160016821F003010160016895
:100E000041F0020101600168C1F381010229FAD1B8
:100E10000CBD01920CBD000088ED00E000380240DE
:100E2000FFFFF6FE103000240024F4001000002024
:100E300000127A000070004010644108003C02403B
:100E4000064C074D06E0E06840F0010394E8070017
:100E500098471034AC42F6D3FFF7A2F9840E00088D
:100E6000A40E000802E008C8121F08C1002AFAD127
:100E700070477047002001E001C1121F002AFBD11A
:100E800070470000A40E00080000002024000000AD
:100E9000640E0008C80E00082400002004040000AE
:100EA000740E0008000000000102030401020304A4
:100EB0000607080900E1F505000000000000000039
:080EC000010203040607080902
:040000050800019955
:00000001FF
