:020000040800F2
:10000000E0180020A9010008B1010008B3010008B0
:10001000B5010008B7010008B901000800000000A0
:10002000000000000000000000000000BB0100080C
:10003000BD01000800000000BF01000839260008CB
:10004000C3010008C3010008C3010008C301000880
:10005000C3010008C3010008AD030008C301000884
:10006000C3010008C3010008C3010008C301000860
:10007000C3010008C3010008C3010008C301000850
:10008000C3010008C3010008C3010008000000000C
:10009000000000000000000000000000C301000894
:1000A000C3010008C3010008C3010008C301000820
:1000B00051270008C3010008C3010008C30100085C
:1000C000C3010008C3010008C3010008C301000800
:1000D000C3010008C3010008C301000800000000BC
:1000E000C3010008C3010008C301000800000000AC
:1000F000000000000000000000000000C301000834
:1001000000000000C3010008C3010008C30100088B
:1001100000000000000000000000000000000000DF
:10012000C3010008C3010008C3010008C30100089F
:10013000C3010008000000000000000000000000F3
:10014000000000000000000000000000A5250008DD
:10015000C3010008C3010008C3010008C30100086F
:10016000C3010008C30100080000000000000000F7
:10017000000000000000000000000000000000007F
:1001800000000000C30100080000000000000000A3
:10019000C3010008DFF80CD000F090F800480047D9
:1001A0003D410008E0180020064880470648004707
:1001B000FEE7FEE7FEE7FEE7FEE7FEE7FEE7FEE717
:1001C000FEE7FEE7FD260008950100082DE9F05F37
:1001D0000546002092469B468846064681464024B6
:1001E0001BE0284641464746224600F057F8534652
:1001F0005A46C01A914110D311461846224600F0C3
:100200003EF82D1A67EB01084F46224601200021D7
:1002100000F035F817EB00094E41201EA4F101044F
:10022000DFDC484631462A464346BDE8F09F40EAB7
:1002300001039B0703D009E008C9121F08C0042A64
:10024000FAD203E011F8013B00F8013B521EF9D24B
:10025000704730B50B46014600202022012409E0FA
:1002600021FA02F59D4205D303FA02F5491B04FA6F
:1002700002F52844151EA2F10102F1DC30BD202A4E
:1002800004DB203A00FA02F1002070479140C2F1ED
:10029000200320FA03F3194390407047202A04DB1F
:1002A000203A21FA02F00021704721FA02F3D040EF
:1002B000C2F120029140084319467047064C074D91
:1002C00006E0E06840F0010394E807009847103426
:1002D000AC42F6D3FFF762FFF0410008104200087D
:1002E00070B58C1810F8015B15F0070301D110F8F8
:1002F000013B2A1106D110F8012B03E010F8016B25
:1003000001F8016B5B1EF9D12B0705D40023521EA7
:100310000DD401F8013BFAE710F8013BCB1A921C0F
:1003200003E013F8015B01F8015B521EF9D5A1420D
:10033000D8D3002070BD0020704700207047000017
:1003400010B500220649074802F036FB0649054869
:1003500002F02DFB034802F014FB002010BD00004A
:10036000F80E0020FC020020100B002010B5014602
:10037000034802F01CFB024802F003FB002010BD02
:10038000FC020020084A10B5D2F81822526D0AB1BA
:10039000012010BD0A460146034802F00DFBBDE8EE
:1003A0001040014802F046BBFC020020012000F092
:1003B00019B8000070B5044600F0EAF80546601C64
:1003C00002D004480078044400F0E2F8401BA04248
:1003D000FAD370BD48000020012801D103F0A2BC6F
:1003E00070470000044910B50A68024202D0086054
:1003F000FFF7F2FF10BD0000143C01402DE9F84F5B
:10040000DFF860B100224FF001084FF0030A4FF00F
:100410000F090BF1040E00BF0B6808FA02F4234029
:10042000A3426ED14D68022D01D0122D0ED1D508F8
:1004300000EB850CDCF820505607F70E09FA07F69A
:10044000B5430E69BE402E43CCF8206006685500C7
:100450000F790AFA05FC07F0030726EA0C06AF40FD
:10046000374307604E68012E05D0022E03D0112EAF
:1004700001D0122E0ED18668CF6826EA0C06AF4056
:10048000374387604668A6430C79C4F30014944050
:1004900034434460C6688C6826EA0C06AC4034439A
:1004A000C4604C68E40056D52F4C256845F480455F
:1004B0002560246822F0030504F4804400942B4C4A
:1004C0002E19D6F8084895072F0F09FA07F5AC43FF
:1004D000274DA84201D1002515E0264DA84201D1A3
:1004E000012510E0244DA84201D102250BE0234D47
:1004F000A84201D1032506E0214DA84202D10425DE
:1005000001E028E00725BD402543C6F80858DBF880
:1005100000405D464E689C43F60300D51C432C60AA
:10052000DEF8004075464E689C43B60300D51C4378
:100530002C600C4D08352C684E689C43F60200D5A3
:100540001C432C60074D0C352C684E689C43B6024A
:1005500000D51C432C60521C102AFFF45DAFBDE88F
:10056000F88F0000003C0140443802400030014058
:10057000000002400004024000080240000C02405B
:10058000001002400AB1816170470904FBE70000D6
:1005900001488068704700004800002070B50400E2
:1005A00004D094F83D00002510B106E0012070BD94
:1005B00084F83C50204600F075F8242084F83D0073
:1005C0002068016821F00101016001F07DF93349E3
:1005D0002268B0FBF1F15160314A6368934206D959
:1005E0004FF4967359434FF47A73B1FBF3F12368D8
:1005F000491C1962616891420BD84900B0FBF1F2C5
:10060000C2F30B02042A01D2042019E0B0FBF1F07E
:1006100016E0A3689BB301EBC10202EB0112B0FB31
:10062000F2F242F48042120530D04BB301EBC1022A
:1006300002EB0111B0FBF1F040F4804040F40040C7
:100640002168C861D4E90701084321680860D4E93A
:100650000310084321688860D4E905010843216834
:10066000C8602068016841F0010101602564202014
:1006700084F83D00256384F83E50002070BD00E002
:1006800006E001EB4102B0FBF2F2CCE70120D7E734
:1006900001EB4101B0FBF1F0D0E7000040420F0058
:1006A000A086010000B500680E4987B0884217D1C6
:1006B0004FF4107000901220019001200290002051
:1006C00003900420049069460748FFF797FE074807
:1006D000016841F400110160006800F40010059009
:1006E00007B000BD00540040000402404038024002
:1006F0002DE9FE43044600688168744D744E4FF046
:1007000040270291A84201D1314600E0394689686C
:100710000191C1694FF00108C1F3012102290AD0FA
:10072000C16911F4407F06D00199890773D5A842A9
:1007300067D1304666E00299890707D54068C04313
:10074000000603D40021204601F008FD0198C007EF
:100750000DD02068A84201D1304600E038464068FC
:10076000C043400603D40121204601F0B3FC0198A8
:100770004FF65F79400628D52068A84201D131465E
:1007800000E039464968C94389061ED4A84201D110
:10079000304600E03846406820F0600101D1304624
:1007A00000E0384641602068416801EA0901416083
:1007B0002068C1688068009084F84180606C40F0D7
:1007C00002006064204600F086F8029800077BD59E
:1007D00020684168C943890676D4416801EA090165
:1007E00041602068A84201D1304600E038464068A8
:1007F00020F0600000D03E46706020688068009065
:1008000057E0384640686FEA0000000603D4012133
:10081000204601F0A3FC0298C00708D02068406879
:10082000C043400603D40021204601F053FC029847
:100830004FF69F7940061FD520684168C943890655
:100840001AD4416801EA090141602068A84201D137
:10085000304600E03846406820F0A00101D1304623
:1008600000E03846416084F84180606C40F002004E
:100870006064204600F02FF80198000724D5206816
:10088000A84201D1314600E039464968C94389068A
:100890001AD4A84201D1304600E03846406820F022
:1008A000A00000D03E4670602068416801EA09015E
:1008B000416084F84180606C40F004006064204630
:1008C000BDE8FE4300F007B8BDE8FE8300380040F5
:1008D00000340040704770472DE9F05F04004FF08E
:1008E00002064FF000074FF010052CD04FF0020920
:1008F000C84684F8419054486063204600F0ACF844
:100900002068C16940F6BF7A21EA0A01C161216805
:10091000C1F820802068D0F81C8060694FF4007B0B
:10092000022835D0E06800B12025A068202800D832
:100930006D00012000F054FE2169594525D1E16880
:1009400021B1A90003E00120BDE8F09FE900B0FB60
:10095000F1F000BF00EB800061694000B0FBF1F0F6
:10096000401D0A21B0FBF1F101F00100091AC1F3A9
:100970004F060702B01EFE280AD3606C40F010003C
:1009800060642046FFF7A7FFDDE7B0FBF5F0E1E785
:10099000206921683E4330430862A0882189228B68
:1009A0000843A1891143084380B2216840EA080046
:1009B00040F40060C861206A01283AD1234860638E
:1009C00023482168234A4FF04023814201D1114638
:1009D00000E01946C96921EA0A0101D1154600E083
:1009E0001D46E96125684946854201D1154600E06A
:1009F0001D4629622568854201D1114600E019464D
:100A0000CE69616859451BD0D1B100212789B4F85E
:100A10000CC047EA0C07B4F818C04CEA010C47EACE
:100A20000C07B9B2314341F40061854200D01A4647
:100A3000D16100206064012084F84100002083E738
:100A40004FF48071E2E70000E1210008F1060008A0
:100A50000038004000340040F0B5214A016800250C
:100A600020480224204E87B0914217D1016841F4FA
:100A7000804101600068052700F48040059008204F
:100A80008DE83100CDE9035769463046FFF7B6FCE3
:100A9000B8028DE83100694614481AE0144A9142C0
:100AA0001BD1016841F4004101600068062700F491
:100AB0000040059010208DE83100CDE903576946CC
:100AC0000C48FFF79BFC4FF4A4508DE831006946B9
:100AD0003046CDE90357FFF791FC07B0F0BD0000A9
:100AE0000038004040380240000802400004024044
:100AF000003C004000000240704770470248816897
:100B00000278114481607047480000200B4810B5FE
:100B1000016841F400710160016841F48061016085
:100B2000016841F480710160032000F097F8002013
:100B300000F006F800F024F8002010BD003C024050
:100B400070B50D4D04464FF47A712878B1FBF0F082
:100B50000A490968B1FBF0F001F0F7F848B9102C28
:100B600007D200222146501E00F058F800206C6089
:100B700070BD012070BD000048000020540000201E
:100B80001F4808B5016841F480410160006800F425
:100B9000804000901A48001F016841F080510160B8
:100BA000006800F080500090072000F057F8002205
:100BB00011466FF00B0000F031F8002211466FF083
:100BC0000A0000F02BF8002211466FF0090000F037
:100BD00025F800221146501F00F020F8002211468F
:100BE000101F00F01BF800221146901E00F016F8AE
:100BF0000022BDE808401146501E00F00FB800006A
:100C00004438024000F01F02012191404009800059
:100C100000F1E020C0F8001170470000F0B40E4B66
:100C20001B680C46C3F30223C3F10705042D00D94A
:100C30000425191D072901D2002300E0DB1E01262F
:100C400006FA05F1491E214099409E40761E164045
:100C50003143F0BC01F096BC0CED00E0064900F019
:100C6000070208684FF6FF03184040EA0220034AD3
:100C700010430860704700000CED00E00000FA052A
:100C80000068416200207047F0B500680023446AA4
:100C900031B1856A4FF4827604EB15444D1E0AE0AB
:100CA00044EA024181620FE006EB8307C7595B1CEF
:100CB00004EB1744DBB2AB42F6DB4FF4807303EB7B
:100CC000810144EA024242500020F0BDD0F8EC031A
:100CD00002F0D6B8C1EBC10200EB8202D0F8EC03FF
:100CE000526C02F043B8C1EBC10200EB8202D0F8B3
:100CF000EC03D2F8042202F08EB8D0F8EC0302F034
:100D0000C1B810B504460A460B0601F07F00C0EBDF
:100D1000C00104EB810101D5383101E001F5FC711E
:100D20000870D009487094F8B803012809D0012050
:100D300084F8B803206802F0E7FB002084F8B803C9
:100D400010BD022010BD70B50A460446090602F027
:100D50007F0005D5C0EBC00104EB8101383105E00F
:100D6000C2EBC20104EB810101F5FC7100258D701D
:100D70000870D009487094F8B803012809D0012000
:100D800084F8B803206802F0A0FD84F8B85300206E
:100D900070BD022070BD01F00F01C1EBC10100EB7D
:100DA0008100B0F8100280B2704770B504460D465D
:100DB0000E0601F07F00C0EBC00104EB810101D5FC
:100DC000383101E001F5FC71ED0908704D708A6061
:100DD000CB7000D0C8800025022B00D10D7194F893
:100DE000B803012809D0012084F8B803206802F074
:100DF000DFFA284684F8B85370BD022070BD70B584
:100E00000C4601F07F05C5EBC50100EB8101C1F87F
:100E10000C32C1F804220023C1F8103281F8F931F4
:100E200081F8F851036901F5FC71012B00D10A61C9
:100E30006206027C006803D002F0A8FD002070BDAD
:100E400002F084FCFAE770B50D460446090605F089
:100E50007F0005D5C0EBC00104EB8101383105E00E
:100E6000C5EBC50104EB810101F5FC7101228A701B
:100E70000870E809487094F8B803012807D084F88E
:100E8000B823206802F053FD680602D007E0022074
:100E900070BD217C04F56F72206802F0F7FC002021
:100EA00084F8B80370BD70B50C4601F07F05C5EB42
:100EB000C50100EB8101CB644A6400230B6501236B
:100EC00081F8393001F8385F0369012B00D10A61DC
:100ED0006206027C006803D002F058FD002070BD5D
:100EE00002F034FCFAE700002DE9F84F04460068F0
:100EF0000026054602F09EFE002875D1206802F00B
:100F0000C2FE002870D0206802F0BDFE800704D524
:100F10002068416901F002014161206802F0B3FEDE
:100F2000010304F56F704FF0010B4FF0000A0090C1
:100F30004DD5206802F089FE074646E0F80742D00A
:100F4000F1B2206802F097FE8046C00728D005EB7A
:100F50004612C2F808BB2069012811D1C6EBC600B1
:100F600004EB8001D2F8102BD1F80002C2F3120278
:100F7000821AC1F81022D1F804221044C1F80402E8
:100F8000F1B22046FFF7AFFE2069012808D13EB933
:100F9000D4F80C0220B920680121009A02F076FCF6
:100FA0005FEA087007D5204600F0E6FA05EB461127
:100FB0000820C1F8080B5FEAC86004D505EB4611AC
:100FC0001020C1F8080B7F08761C002FB6D12068CE
:100FD00002F059FE40034FF040095ED5206802F050
:100FE0002DFE0746002656E0D2E1F80751D0F1B2B7
:100FF000206802F031FE8046C00724D0D5F834289E
:101000000BFA06F08243C5F8342805EB4610C0F809
:1010100008B92069012807D1C6EBC60004EB80009F
:10102000D0E9101211444164F1B22046FFF752FE9C
:101030002069012807D136B9E06C20B92068012168
:10104000009A02F023FC5FEA087004D505EB461114
:101050000820C1F808095FEAC86004D505EB46110D
:101060001020C1F808095FEA486003D505EB461176
:10107000C1F808995FEA887004D505EB4611022093
:10108000C1F808095FEA086003D53146204601F03F
:101090008FFA7F08761C002FA7D1206802F0F3FD9D
:1010A00000280DDAD5F8040820F00100C5F804087E
:1010B000204600F047FA2168486900F00040486186
:1010C000206802F0E0FD00050BD5D5F80808C00740
:1010D00002D0204600F06CFA2068416901F40061FA
:1010E0004161206802F0CFFDC0044CD5D5F804085A
:1010F00020F00100C5F804081021206802F06AFD04
:101100000020FF2107E000BF05EB4012C2F80819DC
:10111000C2F8081B401C62688242F5D84FF0FF30CD
:10112000C5F81808D5F81C0840F00110C5F81C08CF
:10113000206B60B1D5F8840840F00B00C5F8840836
:10114000D5F8440840F00B00C5F844080BE0D5F88A
:10115000140840F00B00C5F81408D5F8100840F04A
:101160000B00C5F81008D5F8000820F4FE60C5F89B
:101170000008217C2068009A02F088FB21684869F9
:1011800000F480504861206802F07DFD80047DD528
:10119000206802F04DF92068C16821F47051C160E7
:1011A000206802F029FD78B10320C4F81490E060B3
:1011B00000F084FB7749784A014491420AD22068C2
:1011C000C16841F4705158E04FF40070C4F80CA0AD
:1011D000606136E07149724A0144914204D220684C
:1011E000C16841F4605148E06E496F4A0144914240
:1011F00004D22068C16841F450513EE06B496C4A0A
:101200000144914204D22068C16841F4405134E065
:101210006849694A0144914204D22068C16841F496
:1012200030512AE06549664A0144914204D220685F
:10123000C16841F4205120E06249421862498A4263
:1012400004D22068C16841F4105116E05F49604A39
:101250000144914204D22068C16841F400510CE07D
:101260005C4908445C4988422068C16803D241F463
:10127000E05102E00AE041F4C051C160204600F0B4
:1012800051F92068416901F400514161206802F080
:10129000FAFCC00636D52168886920F01000886104
:1012A000D5F8208008F00F00C0EBC00004EB8007E9
:1012B000C8F3434007F5FC77022802D0062812D075
:1012C0001BE047F6F07018EA000F16D0C8F30A12B8
:1012D00090462846F96802F0DAFCF8684044F86065
:1012E000B869404408E008222846009902F0CFFC83
:1012F000B969C8F30A100844B8612068816941F0EF
:1013000010018161206802F0BEFC000707D520466D
:1013100000F01CF92068416901F008014161206872
:1013200002F0B1FCC00208D5F1B2204600F056F838
:101330002068416901F480114161206802F0A3FC3A
:10134000800208D5F1B2204600F04CF820684169CF
:1013500001F400114161206802F095FC400007D5BE
:101360002046FFF7B3FC2068416901F080414161EC
:10137000206802F088FC40070AD5206845686807A5
:1013800002D52046FFF7B9FC206841682943416037
:10139000BDE8F88F405327FF00350C00401E1BFFAF
:1013A00040420F0000DC0BFF804F1200808CF9FEE2
:1013B00020D6130060B6E5FE60E3160000D3CEFE33
:1013C00040771B00C05BB3FEC091210000CA91FEB4
:1013D00020753800E05459FEE09C4100D0F8EC0341
:1013E00001F0AEBDD0F8EC0301F0ACBDF0B58BB0B0
:1013F00004004FF0000556D0032084F8B9032046BE
:1014000000F054F8206802F09BF904F11001282242
:101410000F466846FEF70BFF94E80F0002F022F833
:101420000021206802F043FC01260020C5EBC50125
:1014300004EB810181F8396001F8385FCD80C87014
:101440008860C8606D1C48610F2DEFD300214FF4F8
:10145000827300BFC1EBC10204EB820203EB810582
:1014600082F8F90182F8F811D18782F8FB01C2F8FD
:101470000002C2F80402C2F80C0222685051491C52
:101480000F29E7D3282239466846FEF7D0FE94E8B4
:101490000F0002F0B5F884F8B963206802F0A4F8F0
:1014A00000200BB0F0BD0120FBE7000030B5006864
:1014B00087B0B0F1A04F2FD100244FF40070CDE9D8
:1014C0000004164D694628460294FEF797FF4FF434
:1014D000E05000900220CDE90104032003900A208F
:1014E000049069462846FEF789FF0D48016841F0DF
:1014F000800101600A481030016841F480410160B8
:101500000068002200F48040059011464320FFF758
:1015100085FB4320FFF776FB07B030BD000002409B
:101520003438024010B50446C068012100B90021DA
:10153000D4F8EC0301F05CFDD4F8EC03BDE81040F6
:1015400001F025BDD0F8EC0301F040BDD0F8EC036C
:1015500001F042BD10B5044690F8B803012809D047
:10156000012084F8B803206802F0B7FB002084F85B
:10157000B80310BD022010BDD0F8EC2300F56F7148
:10158000104601F048BD10B5044690F8B803012894
:101590000CD0012084F8B803206802F019F8206804
:1015A00002F002FB002084F8B80310BD022010BD39
:1015B00010B50446D0F8EC0301F07AFD2068D0F8AD
:1015C000001E41F00101C0F8001E206A002804D06E
:1015D0000248016841F00601016010BD10ED00E015
:1015E00001460020012907D11049096811F40001C2
:1015F00003D0012900D10E4870470C48001F016834
:101600000068490200F03F0001D50A4900E00A499C
:10161000064AB1FBF0F07C321168C1F388114143F6
:101620001068C0F30270B1FBF0F070470838024058
:101630000080BB0000127A000024F4002DE9F8437A
:10164000044600684FF00109C1074FF0000601D1C0
:10165000400727D5DFF81C81C8F86860FEF798FFBF
:101660000746454D05E000BFFEF792FFC01B02286C
:1016700057D828680001F7D460688101207A41EAD0
:1016800000703D4984310860C8F86890FEF780FF1B
:10169000074604E0FEF77CFFC01B022841D82868FB
:1016A0000001F7D52078800752D5334840300168D3
:1016B00041F0805101600068304D00F08050009092
:1016C000286840F480702860FEF762FF074604E057
:1016D000FEF75EFFC01B022823D82868C005F7D597
:1016E000254D7035286810F4407020D0A18901F490
:1016F000407181421BD0286820F440712048C0F816
:101700000090066029602868C00710D0FEF740FFEF
:10171000064641F2883707E0FEF73AFF801BB842E1
:1017200002D90320BDE8F88328688007F4D5E16872
:101730001148C1F301220830032A12D0016821F4B4
:10174000F81101602868A189C1F30B0108432860E2
:101750002078000703D50B49207CC1F8E001002068
:10176000E0E70268084B22F4F81219400A430260CD
:10177000E8E70000000047420038024000700040E7
:10178000400E474200104742FFFCFF0F2DE9F04793
:101790000E46050065D0DFF81481D8F80000F7B2D6
:1017A00000F00F00B04207D288F80070D8F80000AF
:1017B00000F00F00B04254D128683D4C810712D58B
:1017C000400703D5206840F4E050206028780007E7
:1017D00003D5206840F4604020602068A96820F0AC
:1017E000F000084320602878C0072DD03049686891
:1017F0000839012812D0022813D0032811D0096813
:10180000890700292DDA216821F0030101432160B5
:10181000FEF7BEFE814641F2883A0EE00968890370
:10182000EFE709688901ECE7FEF7B2FEA0EB0901DA
:10183000514502D90320BDE8F0872068696800F0AF
:101840000C00B0EB810FEFD1D8F80010404601F04A
:101850000F01B14207D90770006800F00F00B042D5
:1018600001D00120E7E72878400705D52068E9681E
:1018700020F4E050084320602878000706D520684F
:10188000296920F4604040EAC100206000F02CF893
:101890002168084AC1F30311515CC8400649086039
:1018A0000020FFF74DF90020C5E70000003C024092
:1018B00008380240D8410008540000200148006860
:1018C000704700005400002004480549006809687A
:1018D000044AC1F38221515CC84070475400002083
:1018E00008380240E8410008154810B5006810F0BB
:1018F0000C02144813D04110042A0FD0082A0ED12C
:101900000F4C241F2268236802F03F025B0207D5B8
:101910002068C0F38810A0FB010106E0084610BD56
:101920002168C1F38811A1FB00010023FEF74EFCE2
:101930002168C1F30141491C4900B0FBF1F010BD21
:10194000083802400024F4002DE9F84F050076D055
:101950002878DFF8F8B2BE4CC00749D0DBF8001099
:101960005846C1F38101012908D00068C0F3810005
:1019700002280AD1201D0068400206D52068800395
:1019800036D568680028E2D032E06868B0F5803F5C
:1019900010D0B0F5A02F206810D020F48030206047
:1019A000206820F4802020606868A0B1FEF7F0FD78
:1019B00006460CE0206840F48030F4E740F48020D4
:1019C0002060F7E7FEF7E4FD801B642873D82068E9
:1019D0008003F7D50CE0FEF7DBFD064605E000BF0F
:1019E000FEF7D6FD801B6428F0D820688003F7D46A
:1019F0002878DFF8608280074FF000093ED5DBF8D9
:101A00000010584611F00C0F09D00068C0F3810097
:101A100002280BD18D48001F0068400206D42068C0
:101A2000800715D5E868012809D111E0E868B8B148
:101A30000120C8F80000FEF7ABFD064605E002E114
:101A4000FEF7A6FD801B0228C0D820688007F7D5C6
:101A50002068296920F0F80040EAC10020600DE00C
:101A6000C8F80090FEF794FD064604E0FEF790FDEE
:101A7000801B02281FD820688007F7D42878000729
:101A800022D5724E744869696C3671B101210160CA
:101A9000FEF77EFD074604E0FEF77AFDC01B022834
:101AA00009D830688007F7D50EE0C0F80090FEF73F
:101AB0006FFD074605E083E0FEF76AFDC01B0228C4
:101AC0007ED830688007F7D42878400768D5DFF8DB
:101AD0007CA100270AF1380ADAF80000C0000BD414
:101AE000DAF8001041F08051CAF80010DAF800006E
:101AF000012700F080500090584E3068C00510D487
:101B0000306840F480703060FEF742FD009005E0E0
:101B1000FEF73EFD0099401A022851D83068C005F2
:101B2000F6D54A4EA868683601280FD005283068D7
:101B300010D020F001003060306820F004003060E8
:101B4000A868B8B1FEF724FD00900FE0306840F0BF
:101B50000100F4E740F004003060F7E7FEF718FDFD
:101B60000099411A41F28830814264D83068800778
:101B7000F4D50EE0FEF70CFD009007E0FEF708FD3F
:101B80000099411A41F28830814254D83068800768
:101B9000F4D42FB1DAF8001021F08051CAF8001007
:101BA000A869C0B3DBF80010C1F3810102294AD053
:101BB0000228484607D0C8F86000FEF7E9FC00E0BC
:101BC00039E005463AE04746C8F86000FEF7E0FC19
:101BD000064604E0FEF7DCFC801B02282BD82068B8
:101BE0008001F7D4D5E907010843A96A1C4A4908CE
:101BF00002EB01416A6A41EA8211084395F82C1010
:101C000040EA01611148001F016001203866FEF7BB
:101C1000BFFC054605E014E0FEF7BAFC401B0228B5
:101C200009D820688001F7D50BE000BFFEF7B0FCB3
:101C3000401B022802D90320BDE8F88F20688001EC
:101C4000F4D40020F8E70120F6E70000083802404D
:101C50000038024000004742800E474200700040BA
:101C60000000FFFF70B5040005D00025A56294F8C0
:101C7000510010B106E0012070BD84F8505020469C
:101C800000F030F8022084F851002068016821F04B
:101C900040010160D4E901010843D4E90312114372
:101CA000084361690843218B01F400710843E1692D
:101CB0000843216A0843A16A084321680860A069B3
:101CC000042101EA1040616A0843216848602068E5
:101CD000C16921F40061C1616565012084F851008A
:101CE000002070BD00B500680E4987B0884216D14B
:101CF0000D480021026842F480520260006800F43E
:101D000080500590E02000900220CDE901010320E1
:101D100003900520049069460448FEF76FFB07B066
:101D200000BD000000300140443802400000024085
:101D30004FF0E0210428086903D020F00400086176
:101D4000704740F00400FAE7704710B5401EB0F14C
:101D5000807F01D3012010BD4FF0E02460610F218E
:101D6000601700F00FFC0020A06107202061002018
:101D700010BD10B5FFF7E8FF10BD7047704730B5D4
:101D800090F83820012A20D0012280F83820022340
:101D900080F8393003685C6824F070045C60036884
:101DA0005C680D682C435C6003689C6824F08004C8
:101DB0009C6003689C6849680C439C6080F83920EB
:101DC000002180F83810084630BD022030BD10B523
:101DD000040003D094F8390010B107E0012010BDD1
:101DE000002084F83800204600F00CF8022084F827
:101DF0003900211D206800F0B1FC012084F8390071
:101E0000002010BD08B50068B0F1804F12D10A481B
:101E1000016841F0010101600068002200F001004A
:101E2000009011461C20FEF7F9FEBDE808401C207A
:101E3000FEF7E8BE08BD0000403802400168CA68ED
:101E400042F00102CA600068016841F001010160CE
:101E50000020704770B5044690F83800012817D06C
:101E6000012584F83850022084F8390020688268FF
:101E700022F0770222F47F4282600868502837D02F
:101E80000DDC202859D005DC88B3102841D151E061
:101E9000022070BD302853D040283AD13FE060285E
:101EA0002ED070280BD0B0F5805F03D0B0F5005F66
:101EB0002FD110E02068816821F0070115E0CB6880
:101EC000D1E90121206800F091FC2168886840F088
:101ED000770088601DE0CB68D1E90121206800F01F
:101EE00085FC2068816841F48041816011E01EE03A
:101EF000CA684968206800F08BFC5021206806E021
:101F0000CA684968206800F094FC6021206800F0ED
:101F100077FC84F83950002084F8380070BDCA6816
:101F20004968206800F074FC40212068EFE7002138
:101F30002068ECE710212068E9E720212068E6E727
:101F400030212068E3E7704770B5044600680169F6
:101F50004FF00005C943890715D4C168C9438907F3
:101F600011D4E91E01610120207620688069800774
:101F7000204602D0FFF7E7FF04E000F098F8204683
:101F800000F096F8257620680169C943490717D4FF
:101F9000C168C943490713D46FF0040101610220ED
:101FA00020762068806910F4407F204602D0FFF739
:101FB000CAFF04E000F07BF8204600F079F82576AF
:101FC00020680169C943090716D4C168C9430907D4
:101FD00012D46FF008010161042020762068C069E6
:101FE0008007204602D0FFF7AEFF04E000F05FF864
:101FF000204600F05DF8257620680169C943C906CE
:1020000017D4C168C943C90613D46FF01001016128
:10201000082020762068C06910F4407F204602D056
:10202000FFF791FF04E000F042F8204600F040F88E
:10203000257620680169C943C90708D1C168C94329
:10204000C90704D1891E0161204600F033F82068D9
:102050000169C943090609D4C168C943090605D401
:102060006FF0800101612046FFF787FE206801695B
:10207000C943490609D4C168C943490605D46FF06C
:1020800040010161204600F023F820680169C9433E
:1020900089060BD4C168C943890607D46FF02001B3
:1020A00001612046BDE87040FFF768BE70BD704713
:1020B000704700000068B0F1804F05D103490888DF
:1020C000401C088001F02EBE704700000000002078
:1020D000704700002DE9F041C26A012613460468EA
:1020E000921C39B11B491C4D4FF040278C4217D12F
:1020F0002C4616E0E168C2621980418E491E418675
:10210000418E00290AD101684A684FF69F731A4030
:102110004A601BE080F84160FEF7DCFBBDE8F0811F
:102120003C46E468C2621C80428E521E4286428E49
:10213000002AF3D102688A4201D1294600E03946DB
:10214000496821F0600100D03D466960418D002959
:10215000E0D0E3E7003800400034004070B5426A48
:102160000125941C0368446241B11B4912881B4C31
:102170004FF040268B4216D1234615E01188D960D6
:10218000418D491E4185418D00290BD101684A6866
:102190004FF65F731A404A6019E000BF80F8415063
:1021A000FEF798FB70BD3346DA60428D521E4285C1
:1021B000428D002AF6D102688A4201D1214600E010
:1021C0003146496821F0A00100D034466160418E5B
:1021D0000029E3D070BD000000380040003400400A
:1021E000FEB5016804468868019094F84100012515
:1021F000042833D101984FF69F76C00716D048685F
:10220000C043400612D4CA682046E16A8B1CE362D0
:102210000A80618E491E6186618E39B901684A68FB
:1022200032404A6080F84150FEF766FC0198400653
:1022300014D520684168C94389060FD441683140EC
:1022400041602068C1688068009084F84150606CEB
:1022500040F0020060642046FEF73DFB94F8410028
:10226000032834D101984FF65F76800718D520688F
:102270004068C043000613D4616A20468A1C62622B
:1022800022680988D160618D491E6185618D39B9E7
:1022900001684A6832404A6080F84150FEF72DFCE0
:1022A0000198000713D520684168C94389060ED4F8
:1022B00041683140416020688068009084F8415056
:1022C000606C40F0040060642046FEF704FBFEBD35
:1022D0002DE9F043474887B00024016841F0100120
:1022E0000160016801F010010591016841F00401ED
:1022F0000160016801F004010591016841F080016D
:102300000160016801F080010591016841F001015F
:102310000160016801F001010591016841F00201CD
:102320000160016801F002010591016841F00801B6
:1023300001600068304F00F008000590002208217D
:102340003846FEF71FF9DFF8B480012211464046F7
:10235000FEF718F9DFF8A8904FF210060022314678
:102360004846FEF70FF90420CDE9000469463846D7
:102370000294FEF743F8082000900125CDE90154AE
:10238000694638460394FEF739F8322000901D481C
:10239000CDE9010469463846FEF730F80095CDE9ED
:1023A0000154694640460394FEF728F81648009504
:1023B000CDE9010469461548FEF720F80096CDE9FD
:1023C0000154694648460394FEF718F82020CDE9E9
:1023D0000004694648460294FEF710F800221146B0
:1023E0000620FEF71BFC0620FEF70CFC07B0BDE83C
:1023F000F083000030380240001002400008024024
:10240000000C0240000012100000111000000240F9
:102410000B4810B5094901600A49416000214FF499
:1024200080428160C0E9031241618161C161016242
:10243000FEF7B4F8002800D0FEE710BD00540040BD
:1024400084010020A08601000B4810B509490160F5
:1024500049154160002181604FF4FA52C160C0E922
:1024600004128161C1610162FEF736FA002800D0D2
:10247000FEE710BD00380040D80100200A490B4893
:1024800010B54A15C0E9001200218160C0E90312AD
:10249000074AC0E90521C1610162FEF71DFA002863
:1024A00000D0FEE710BD0000003C004020020020EC
:1024B000007701000E4810B50C4901604FF482719D
:1024C000416000218160C1604FF400720161C0E988
:1024D0000512C1610162416281620A21C162FFF796
:1024E000C1FB002800D0FEE710BD00000030014015
:1024F0006802002010B5134886B04FF0804101609B
:102500004FF452710024C0E901140F49C0E90314CB
:10251000FFF75DFC00B1FEE74FF480500090694684
:102520000848FFF797FC00B1FEE72020CDE904043E
:1025300004A90448FFF723FC002800D0FEE706B0FA
:1025400010BD0000C0020020A086010010B50022CE
:102550000849094800F0D5FB0849074800F0D5FDB7
:102560000749054800F01BFABDE81040024800F09A
:1025700019BE000004000020FC02002038010020E9
:10258000380000200907090E002806DA00F00F00C5
:1025900000F1E02080F8141D704700F1E02080F881
:1025A000001470470148FEF79FBC00002005002082
:1025B0002DE9F84F0F46C1EBC70100EB81058246BC
:1025C0000668D5E91301441A286C3835A04200D2B8
:1025D0000446E01C4FEA900806EB471916E0441A3F
:1025E000A868A04200D20446E01C4FEA90089AF87E
:1025F00010000090A3B2FAB23046E96801F07EFB09
:10260000E8682044E860A8692044A861D9F818095E
:1026100080B2404505D9D5E90501814201D20028A3
:10262000DDD134B90120D6F83418B8408143C6F85A
:1026300034180020BDE8F88F10B5FEF75FFABDE84A
:102640001040FFF796BB000070B52A4898B00025EF
:10265000016841F080510160006800F080501690E0
:102660002548016821F4404141F4004101600068BF
:10267000012600F4404016903004CDE900600224A9
:102680008001CDE90640082008904FF4A870099019
:1026900004200A9007200B906846FFF755F900B117
:1026A000FEE70CA90F2081E831004FF48050CDE9FE
:1026B0000F0502210CA8FFF769F800B1FEE7C02062
:1026C000CDE91204119611A8FEF7B8FF00B1FEE79C
:1026D000FFF7F4F84FF47A71B0FBF1F0FFF735FB38
:1026E0000420FFF725FB00221146501EFEF796FA44
:1026F00018B070BD403802400070004010480168BA
:1027000041F4700101600F48016841F0010101606E
:102710000C4A00210832116002680B4B1A4002601B
:10272000031D0A4A1A60026822F4802202600548EA
:102730000C3001600249580680390860704700007B
:1027400088ED00E000380240FFFFF6FE1030002464
:102750000148FFF7F9BB0000C0020020F0B5026895
:102760001B4B1C4C9F031C4D1C4E984207D0B8427B
:1027700005D0A04203D0A84201D0B04204D122F03B
:10278000700C4A6842EA0C02984210D0B8420ED04F
:10279000A0420CD0A8420AD0B04208D0104CA042AF
:1027A00005D0104CA04202D00F4CA04203D122F41D
:1027B0004074CA68224302608A68C2620A68826200
:1027C000984201D10969016301214161F0BD000016
:1027D000000001400004004000080040000C0040E0
:1027E00000400140004401400048014010B58468A9
:1027F00042EA032224F47F440A432243826010BD4C
:10280000826822F070020A4342F00701816070473B
:1028100010B5036A046A24F001040462846924F098
:10282000F00444EA021423F00A020A4384610262BB
:1028300010BD10B5036A23F0100303628369046AB4
:1028400023F4704343EA023224F0A00343EA011167
:102850008261016210BDD0F8180218B100214165F3
:10286000084670470220704770B50546D0F81842F8
:1028700000F013FBE064D5F8180240B1D5F81C1243
:10288000606CCA6804F14C019047002070BD0220C2
:1028900070BD70B504460025812100F057FA012172
:1028A000204600F053FA8221204600F04FFAD4F877
:1028B000180250B1D4F81C0204F506744068804731
:1028C000206801F013FC00202060284670BD10B580
:1028D000D0E9864159B194F84000FF2807D08B68B1
:1028E00094F8412021469847FF2084F840000020BA
:1028F00010BD00000A2101800048704760000020E0
:102900004321018000487047B0000020432101802E
:10291000004870476C000020432101800048704748
:10292000F400002070B50546007C002640230222FA
:102930008121284600F008FB40230222012128467D
:1029400000F002FB082303228221284600F0FCFA53
:102950005C2001F00BFCC5F8180280B10446D5F8E4
:102960001C020068804700206065A065287C402329
:1029700001212846626C00F0FAFA304670BD01264B
:10298000FBE710B5D0F8181239B1027C4A6C40232D
:10299000012100F0ECFA002010BD022010BD02461B
:1029A0000220002902D00020C2F81C127047D0F883
:1029B0001802416400207047D0F818020265816453
:1029C0000020704770B50646D0F8185208780C46BB
:1029D00010F0600121D0202927D1E288AAB1000699
:1029E000607807D5D6F81C128B6829469847E2888C
:1029F000294617E085F84000A07985F84100E28873
:102A00002946304600F04DF80FE0D6F81C126078E9
:102A100000228B682146984707E060780A2804D195
:102A200003490122304600F056F8002070BD000036
:102A30005C00002010B5D0F8181271B14A6D0AB1CF
:102A4000012010BD01224A65B1F8502093B28A6C72
:102A5000812100F036FB002010BD022010BD10B512
:102A6000D0F8142252689047002010BD134610B5CC
:102A70000A46002100F07BFA002010BD134610B575
:102A80000A46002100F01DFB002010BD10B50446D1
:102A9000802100F0EDFA2046BDE81040002100F052
:102AA000E7BA10B50323C0F80821C0F8F431C0F824
:102AB0000C2113460A46002100F059FA002010BDEF
:102AC00010B505210023C0F8F4111A46194600F08C
:102AD0004EFA002010BD10B502238261C0F8F43117
:102AE000C26113460A46002100F0EBFA002010BD37
:102AF00010B504210023C0F8F4111A46194600F05D
:102B0000E0FA002010BD000010B50A46024903A0FB
:102B100000F0D4F8004810BD1009002043444320C1
:102B2000436F6E6669670000122008800048704796
:102B30002400002010B50A46024903A000F0BEF8A8
:102B4000004810BD1009002043444320496E7465BD
:102B500072666163650000000420088000487047C9
:102B60002000002010B50A46024903A000F0A6F894
:102B7000004810BD1009002053544D6963726F6501
:102B80006C656374726F6E696373000010B50A46FA
:102B9000024903A000F092F8004810BD100900207F
:102BA00053544D3332205669727475616C20436FF3
:102BB0006D506F727400000010B50A46024903A000
:102BC00000F07CF8004810BD100900203030303093
:102BD000303030303030314100000000F8B504466C
:102BE00048880D46010A08294BD2DFE801F04A0463
:102BF00009174A4A4048D4F81012207C0A6832E08B
:102C0000207C02260028D4F8140205D0C16A684648
:102C100088470146467041E0816AF8E7C0B206285D
:102C20002FD2DFE800F003080D12171CD4F81012A1
:102C3000207C4A6817E0D4F81012207C8A6812E0E1
:102C4000D4F81012207CCA680DE0D4F81012207C51
:102C50000A6908E0D4F81012207C4A6903E0D4F82D
:102C60001012207C8A6969469047014616E0207C54
:102C700038B9D4F81402416B68468847F5E7207CE0
:102C800020B129462046FFF701FFF8BDD4F8140211
:102C9000016B68468847014607204870BDF8000070
:102CA0000028F2D0EA88002AEFD0824200D90246FA
:102CB000ADF800202046FFF70EFFF8BD70B50023E9
:102CC00000281DD00446002502E06D1CEDB2641CF6
:102CD0002678002EF9D1022404EB45041480CC544C
:102CE0005B1C0322CA5400245B1C06E0CA545B1C14
:102CF000DAB28C54521CD3B2401C0278002AF5D1AF
:102D000070BD10B580B1D0F8143213B10023C0F8F3
:102D1000143209B1C0F81012012180F8FC110270C0
:102D200000F0C0F8002010BD022010BD10B5002436
:102D3000D0F82002FEF707F830B1012801D00228B0
:102D400001D0022400E00124204610BD10B500246B
:102D5000D0F82002FDF7D5FF30B1012801D00228BC
:102D600001D0022400E00124204610BD2DE9F041ED
:102D70001746044641B1D4F8140242698AB394F864
:102D8000FC01032842D043E0D4F8F411002504F1FB
:102D90001400022933D1D0E902639E4207D9F31A05
:102DA00083609AB239462046FFF768FE12E0406819
:102DB000B0FBF3F103FB1101A1B9984212D3D4F88F
:102DC000F81188420ED2002211462046FFF756FE27
:102DD000C4F8F85100231A461946204600F0C7F8F7
:102DE0000DE012E0D4F81402C16829B194F8FC0196
:102DF000032801D1204688472046FFF761FE94F85A
:102E00000002012804D184F8005201E020469047D6
:102E10000020BDE8F08170B51546044641B1D4F8F4
:102E2000140282693AB394F8FC01032824D025E007
:102E3000D4F8F41104F5827003291FD1D0E90221DE
:102E40008A420BD9531A83600846834200D3034653
:102E50009AB229462046FFF709FE0FE0D4F8140283
:102E6000016929B194F8FC01032801D12046884763
:102E70002046FFF73DFE01E020469047002070BD50
:102E80000020704710B5012180F8FC11D0F8142201
:102E9000017952689047002010BDD0F82002FDF75C
:102EA0007ABF000010B5017859BB17490222C1F85A
:102EB000EC03C0F820124FF0A040086004204860E6
:102EC0000020C1E90320C1E90502C8610862486227
:102ED000C86208630846FEF789FA20B140F2531130
:102EE0000AA000F037FF80210748FDF7C9FE402205
:102EF00000210548FDF7C8FE802201210248FDF7A8
:102F0000C3FE002010BD0000200500202E2E2F53F0
:102F100072632F757362645F636F6E662E63000069
:102F20000A0601F07F01D0F82002C1EBC10100EBDD
:102F3000810002D590F83A00704790F8FA01704786
:102F4000002070470020704770B51D4613460024CE
:102F5000D0F820022A46FDF728FF30B1012801D021
:102F6000022801D0022400E00124204670BD10B5E3
:102F70000024D0F82002FDF742FF30B1012801D033
:102F8000022801D0022400E00124204610BD70B5C3
:102F90000022044640231146FFF7D6FF40252B466A
:102FA000002280212046C4F81051FFF7CDFF0120F8
:102FB000256284F8FC01D4F8180228B1D4F8140270
:102FC0002179426820469047002070BD90F8FD119D
:102FD00080F8FC110020704710B590F8FC1103290F
:102FE00004D1D0F81412C96901B18847002010BD7E
:102FF00001740020704710B50024D0F82002FEF7BD
:10300000A9FA30B1012801D0022801D0022400E041
:103010000124204610BD70B5044600F50270054637
:1030200000F05FF80120C4F8F401B4F80E02C4F80F
:10303000F80194F8080210F01F010AD001290DD000
:10304000022910D000F08001204600F011F8002085
:1030500070BD2946204600F0AAF8F8E72946204628
:1030600000F08CF9F3E72946204600F019F9EEE765
:1030700010B50024D0F82002FDF7E5FE30B101289C
:1030800001D0022801D0022400E00124204610BD16
:1030900010B50024D0F82002FEF775FA30B10128EF
:1030A00001D0022801D0022400E00124204610BDF6
:1030B00090F8FC1180F8FD11042180F8FC1100202B
:1030C000704710B50024D0F82002FDF7ECFE30B1B7
:1030D000012801D0022801D0022400E0012420466A
:1030E00010BD0A7802704A7842708A78CB7802EB79
:1030F000032242800A794B7902EB032282808A798B
:10310000C97902EB0121C18070470246002011B14C
:10311000C2F8141270470220704710B5D0F814227C
:1031200002241AB11268904700B90024204610BD4D
:1031300070B50E461A4D897804462970012928D8A1
:1031400094F8FC01022802D0032822D105E099B1AD
:103150000320616084F8FC0109E091B16068884255
:103160000AD0C1B22046FFF77AFC29786160204678
:10317000FFF7D3FF02280CD02046BDE87040FFF7D0
:10318000B7BC022084F8FC0120466160FFF767FCB1
:10319000F2E731462046BDE87040FFF777BC0000FB
:1031A0005800002010B5FFF773FF002010BD2DE977
:1031B000F04100264B78012532460A2B43D2DFE846
:1031C00003F03C584251420805422A27FFF706FD0A
:1031D00063E004468888C8B9C888B8B9887800F020
:1031E0007F0794F8FC01032810D084F8FE7139465B
:1031F0002046FFF700FF2046FFF77AFC1FB10220B0
:1032000084F8FC0149E084F8FC5146E020461AE0CD
:10321000FFF78EFF41E0CB88012B14D190F8FC31F1
:10322000022B02D0032B0ED104E08260012200F1B8
:10323000080114E00122011D11E090F8FC21022A8E
:1032400004D0032A02D0FFF721FC26E0C560D0F8A5
:10325000041209B10321C160022200F10C01FFF741
:103260003AFC1AE004464888012816D1C4F80452F2
:103270000BE0044690F8FC01022801D00328C5D1D8
:103280004888012809D1C4F80422D4F814028268BD
:10329000204690472046FFF72BFC3046BDE8F081E2
:1032A00070B50D460446287800260979C0F3411010
:1032B000012806D06878A0B301281FD003283FD189
:1032C00007E0D4F81402294682682046904700207F
:1032D00070BD94F8FC01022817D003282CD168880F
:1032E00028B921B1802902D02046FFF7C1FED4F8C9
:1032F0001402294682682046904713E094F8FC01A6
:10330000022802D0032817D103E0C9B180291BD1BC
:1033100016E06888A0B9480604D02046FFF706FDED
:10332000E5E703E02046FFF7E3FB09E094F8FC0142
:10333000022807D003280BD029462046FFF7A6FB1A
:10334000304670BD4806FBD02046FFF791FEF7E7F8
:10335000080601F07F0004EB001501D5143501E0EB
:1033600005F582752046FFF7DBFD00B101202860DE
:10337000022229462046FFF7AEFBE1E770B505467D
:1033800090F8FC010C4603280DD1207901280AD8B9
:10339000D5F81402826828469047E08830B928465C
:1033A000FFF7A6FB02E02846FFF770FB002070BD88
:1033B00030B54C781D4B01220D78AA40012CD0F875
:1033C0001C4818D044EA0242C0F81C280A7800EBD6
:1033D0004210D0F8002B12040BD4D0F8002B0C892B
:1033E000C4F30A042243C97843EA81410A43C0F87E
:1033F000002B002030BD92B21443C0F81C480C785A
:1034000000EB4410D0F800291204F2D4D0F80029BF
:103410000D89C5F30A052A43C978890441EA845114
:103420000A431A43C0F80029E3E7000000800010B7
:10343000D0F800196FF30A01C0F80019D0F8081885
:10344000C1F34101022905D1D0F8001941F003016F
:10345000C0F80019D0F8041841F48071C0F80418BD
:103460000020704770B50446049D06990D98012907
:103470000CD0E06840F04000E060204600F028F802
:103480004FF48030A063012D16D01DE0A16B21F414
:103490008031A163E1680D4A1140E160E16821F4E7
:1034A0004011E160012803D1E06840F48010E06041
:1034B000204600F00DF8E6E7A06840F00600A060A6
:1034C000A06840F02000A060002070BDBFFFBDFFDD
:1034D00001220C4902E0521C8A420BD80369002BDE
:1034E000F9DA026942F001020261012204E0521C91
:1034F0008A4201D9032070470369DB07F7D1002016
:1035000070470000400D0300F0B50D4604464F78AB
:103510000126F206D3002D49287804EB4010012F34
:1035200014D0D0F8007B27F40047C0F8007B28783F
:1035300004EB4010C0F8002B287804EB4010C0F8D2
:10354000003B01202A7804EB42122BE0D0F80079EE
:1035500027F40047C0F80079287804EB4010C0F841
:103560000029287804EB4010C0F8003901202A789F
:1035700004EB421202E0401C884211D8D2F808390C
:103580005B00F8D41021204600F024FBD4F81C087E
:1035900029788E40B1B2884314E0401C884201D99A
:1035A0000320F0BDD2F8083BDB06F6D4D4F80408BB
:1035B00040F48060C4F80408D4F81C0829788E40D0
:1035C00020EA0640C4F81C080020F0BD400D0300AE
:1035D00010B5D0F8041821F00201C0F80418032037
:1035E000FCF7E8FE002010BD10B5D0F8041841F03B
:1035F0000201C0F804180320FCF7DCFE002010BD17
:103600002DE9F0470E460446DDE90A0A0025DDF8FB
:103610003C80089F5FEA0801A16B11D041F40021B2
:10362000A1634FF00009C4F8009ED4F80018C4F854
:103630000018012807D0D4F8000840F0030007E084
:1036400041F40011ECE7D4F800080BB140F00100A0
:10365000C4F800081021204600F0BCFA204600F013
:10366000A9FA4846C4F81098C4F814984FF0FF31EE
:10367000C4F81818C4F81C984FF0904CFF230FE0C2
:1036800004EB4511D1F80029002A02DAC1F800C97B
:1036900001E0C1F80009C1F81009C1F808396D1C32
:1036A000AE42EDD800210FE004EB4112D2F8005BEE
:1036B000002D02DAC2F800CB01E0C2F8000BC2F81C
:1036C000100BC2F8083B491C8E42EDD8D4F81018F4
:1036D00021F48071C4F81018012F0AD11449C4F8DC
:1036E0003018D4F83018134A1143C4F83018D4F8FD
:1036F0003018A0616FF0804060611FB9A06940F090
:103700001000A061A0690C490843A061BAF1000F44
:1037100003D0A06940F00800A061B8F1010F03D107
:10372000A06906490843A0610020BDE8F0870000B9
:10373000000180000300010000383C8004000040CC
:10374000816821F0010181600020704730B54D781B
:103750004D4C0B7800EB4313012D28D0D3F8105BB0
:103760006FF31205C3F8105B0B7800EB4313D3F82B
:10377000105B2540C3F8105B4B690BB18B684B6144
:103780000B7800EB4313D3F8104B44F40024C3F838
:10379000104B0B7800EB4313D3F8104B8D68C5F337
:1037A00012052C43C3F8104B012A5CD061E04D692F
:1037B000002DD3F810593BD06FF31205C3F8105900
:1037C0000B7800EB4313D3F810592540C3F8105978
:1037D0004C698B689C4200D94B610B7800EB43131A
:1037E000D3F8104944F40024C3F810490B7800EBD7
:1037F0004313D3F810494D69C5F3120554EA050483
:10380000C3F810490B7800EB4313D3F8004944F098
:103810000444C3F80049012A1ED04A6912B3D0F803
:1038200034280B78012199400A43C0F8342829E054
:103830002540C3F810590B7800EB4313D3F8104917
:1038400044F40024C3F810490B7800EB4313D3F879
:1038500010496FF31204D3E70A69097800EB4110AD
:10386000C0F814290EE00B7800EB4313CA68C3F8C4
:10387000142B097800EB4110D0F8001B41F00441F3
:10388000C0F8001B002030BDFFFF07E00023C0F898
:10389000103BD0F8103B43F40023C0F8103BD0F8A5
:1038A000103B43F01803C0F8103BD0F8103B43F036
:1038B000C043C0F8103B012905D1C0F8142B4FF0CC
:1038C0008021C0F8001B002070474B780A7800EB7D
:1038D0004212012B0BD0D2F8003B23F40013C2F8A4
:1038E000003BCA78032A17D0022A15D01DE0D2F86F
:1038F000003923F40013C2F80039CA78032A01D032
:10390000022A12D1097800EB4110D0F8001941F0D9
:103910008051C0F8001908E0097800EB4110D0F898
:10392000001B41F08051C0F8001B002070474B780D
:103930000A7800EB4212012B14D0D2F8003B002B86
:1039400005DBD2F8003B23F08043C2F8003B097846
:1039500000EB4110D0F8001B41F40011C0F8001B2F
:1039600000207047D2F80039002B05DBD2F800396F
:1039700023F08043C2F80039097800EB4110D0F8F9
:10398000001941F40011C0F80019E9E778B54E7844
:103990006FF06045834C0B7800EB4313012E2FD062
:1039A000D3F8106B6FF31206C3F8106B0B7800EBB3
:1039B0004313D3F8106B2640C3F8106B4B69002BF0
:1039C0007DD08C6823445B1EB3FBF4F39BB20C7870
:1039D00000EB4414D4F8106B05EAC3452E43C4F839
:1039E000106B0C7800EB4414D4F8105B8E685E43C7
:1039F000C6F312031D43C4F8105B012A73D0B2E072
:103A00004E6966B3D3F810696FF31206C3F81069F4
:103A10000B7800EB4313D3F810692640C3F8106904
:103A20004C698B681C44641EB4FBF3F305EAC34481
:103A30000B7800EB4313D3F810592C43C3F810490B
:103A40000B7800EB4313D3F810494D69C5F3120509
:103A50002C43C3F81049CB78012B16D027E0D3F8BC
:103A600010592540C3F810590B7800EB4313D3F8D5
:103A7000104944F40024C3F810490B7800EB4313B9
:103A8000D3F810496FF312040FE00B7800EB4313E7
:103A9000D3F8104924F0C044C3F810490B7800EB68
:103AA0004313D3F8104944F00054C3F81049012AD5
:103AB00012D0CB78012B17D04B692BB300E037E045
:103AC000D0F834380D780124AC402343C0F83438A2
:103AD000CB78012B08D017E00C7800EB44140B696D
:103AE000C4F81439F4E738E0D0F80838DB050B786F
:103AF00000EB4313D3F8004902D444F0005401E032
:103B000044F08054C3F800490B7800EB4313D3F81A
:103B1000004944F00444C3F80049CB78012B3ED15E
:103B200000928A8A93B20A78C96800F0E7F836E012
:103B30000B7800EB4313D3F8104B8D68C5F31205D7
:103B40002C43C3F8104B0B7800EB4313D3F8104B06
:103B500044F40024C3F8104B4FE70B7800EB4313F9
:103B6000CA68C3F8142BCA78012A0FD1D0F80828E4
:103B7000D2050A7800EB4212D2F8003B02D443F09F
:103B8000005301E043F08053C2F8003B097800EB9A
:103B90004110D0F8001B41F00441C0F8001B002088
:103BA00078BD0000FFFF07E0816841F001018160FE
:103BB00000207047002110220261054A491C9142F1
:103BC00001D9032070470369DB06F7D40020704752
:103BD000400D03000022202343EA811101610549C1
:103BE000521C8A4201D90320704703699B06F7D40F
:103BF00000207047400D03000021D0F8082812F083
:103C0000060F15D0D0F80828C2F34102012A0CD0C3
:103C1000D0F80828C2F34102032A06D0D0F80808D9
:103C2000C0F34100022802D002E0032100E002219B
:103C300008467047406900F001007047D0F8181836
:103C4000D0F81C08084080B27047D0F81818D0F897
:103C50001C080840000C7047D0F81038D0F8342801
:103C6000CA4002F0010243EAC21200EB4110D0F850
:103C700008091040704700EB4111D1F8081BD0F83B
:103C8000140808407047416980690840704710B5C2
:103C900003460020D21C920803F5805303E01C6801
:103CA00041F8044B401C9042F9D3084610BD10B5B2
:103CB000C26822F0C042C260012901D021B107E0F0
:103CC000C16841F0005102E0C16841F08041C1602B
:103CD0003220FCF76FFB002010BDD0F8002822F442
:103CE000FE62C0F80028D0F800284FF4FE6303EA13
:103CF00001110A43C0F800280020704730B50024A5
:103D0000039D6DB9DB1C9B0800EB023000F5805071
:103D100004E000BF51F8042B0260641C9C42F9D3FC
:103D2000002030BD10B5064806A10288084800F002
:103D300013F8C1B2BDE810400548FCF723BB0000F2
:103D400000000020437A6573632025640A000000A8
:103D500078010020FEE700000FB4084B10B504A95D
:103D600002AA039800F01CF8044602A9002000F003
:103D7000B8F9204610BC5DF814FB0000E3400008D1
:103D800002E008C8121F08C1002AFAD17047704724
:103D9000002001E001C1121F002AFBD17047000082
:103DA0002DE9FF4F8BB088460546002606E0252802
:103DB0000BD0DDE90D1290476D1C761C2878002889
:103DC000F5D10FB03046BDE8F08F0024A146A246E1
:103DD0000122AE4900E0044315F8013F203B02FAFE
:103DE00003F00842F7D128782A2810D06FF02F026C
:103DF0002878A0F13001092915D809EB890102EBD7
:103E0000410144F0020400EB01096D1CF0E758F891
:103E1000041B5FEA010903D544F40054C9F1000909
:103E200044F002046D1C28782E2817D115F8010FD4
:103E300044F004042A280ED06FF02F022878A0F155
:103E4000300109290AD80AEB8A0102EB410100EB93
:103E5000010A6D1CF2E758F804AB6D1C28786C2839
:103E60000FD006DC4C2817D068280DD06A2814D152
:103E700004E0742810D07A280FD10DE044F4001427
:103E80000AE044F4801401E044F44014697881426B
:103E900002D104F580146D1C6D1C2878692865D04A
:103EA00006DC00288DD0632827D0642806D15DE089
:103EB0006E2808D073282AD0752877D0DDE90D1236
:103EC0009047761CE0E0C4F30250022809D0032892
:103ED0000DD0D8F8001004280DD00E6008F10408A9
:103EE000D2E0D8F80010F217C1E90062F6E7D8F87E
:103EF00000100E80F2E70E70F0E718F8041B8DF842
:103F0000001000208DF80100EB46012003E058F876
:103F100004BB4FF0FF3061074FF0000701D40AE007
:103F20007F1C57450DDA8742FADB1BF80710002982
:103F3000F6D106E07F1C8742FCDB1BF80710002946
:103F4000F8D1DDE90D23A9EB07008146214600F0F9
:103F5000B1F83044C61904E0DDE90D121BF8010B7D
:103F600090477F1EF8D22146484688E058F8040B57
:103F7000C4F302514FF00A0B032900D100B2042907
:103F800000D140B2002802DA40422D2102E0210592
:103F900005D52B218DF82410012104E006E0E1076E
:103FA00010D02021F6E708AF089113E058F8040B71
:103FB000C4F302514FF00A0B032900D180B2042947
:103FC00000D1C0B20021EEE75946FCF742F930318A
:103FD00007F8011D0028F7D1ADEB070000F1200B19
:103FE000600702D524F4803401E04FF0010ADA457D
:103FF00002DDAAEB0B0000E00020824600EB0B0183
:1040000008980144A9EB01000A90E00306D4DDE919
:104010000D2321460A9800F04DF806444FF00009A0
:1040200008E009A911F80900DDE90D12904709F12E
:104030000109761C08998945F3DBE0030CD5DDE91D
:104040000D2321460A9800F035F8064404E0DDE926
:104050000D1230209047761CBAF10001AAF1010A36
:10406000F5DC05E0DDE90D1217F8010B9047761C31
:10407000BBF10001ABF1010BF4DC0A982146DDE94C
:104080000D2300F005F806446D1C97E60928010091
:104090002DE9F041044600251E461746880404D445
:1040A00005E039462020B0476D1C641EF9D528462E
:1040B000BDE8F0812DE9F041044600251E469046FA
:1040C000C80301D5302700E02027880404D505E087
:1040D00041463846B0476D1C641EF9D52846BDE8F8
:1040E000F0810A68531C0B601070704710B50028EF
:1040F00021D0114B0022001F196803E0814203D830
:104100000A4649680029F9D152B11368841A9C42C1
:1041100004D1006818441060104602E0506000E0CE
:10412000186039B102680B1A934203D10B681A4424
:1041300002604968416010BD70010020FCF7E6FC98
:10414000FEF782FAFEF7C4F8FEF762F9FEF77CF993
:10415000FEF794F9FEF7AEF9FEF7CCF9FEF7F6F9A3
:104160000148FDF76BFEFEE7C0020020F0B50B3002
:10417000154D20F007010024144A0FE003688B421C
:104180000BD38B4205D95E1A43184768C3E9006711
:1041900000E04368136002C004E0021D10680028BC
:1041A000ECD12046002802D1286808B10020F0BDDB
:1041B000064A07481060074A121A22F00702C0E9AF
:1041C000002401202860D7E774010020700100203E
:1041D000E4120020E01400200000000000000000B5
:1041E000010203040607080900000000010203049D
:1041F000104200080000002078010000E0020008E2
:10420000C84200087801002068170000903D0008AF
:104210004113292B1B0859041A65041A8D041AB975
:10422000041A09041A3504170403090412011402BC
:104230000202164083044057260201020301134183
:10424000031B083B041A37041A6D0419131182105A
:104250009324F4130A0632022A40201C0902433F29
:104260001125C03209041B01020B1305241610018D
:104270000524011009010424020205240617010780
:10428000058203081C10090475320A2E0705010275
:1042900040072A81070944442A07440A2204440AA1
:1042A00016FF44132529140893281B08C508411A32
:1042B000CF0C1A57041A6904C11A0D201A01041AE6
:0842C00019049AF51C0000002E
:040000050800019559
:00000001FF
