:020000040800F2
:1000000058040020AD010008B5150008B715000818
:10001000B9150008BB150008BD1500080000000058
:10002000000000000000000000000000BF150008F4
:10003000C115000800000000C3150008C71500081E
:10004000C7010008C7010008C7010008C701000870
:10005000C7010008C7010008C7010008C701000860
:10006000C7010008C7010008C7010008C701000850
:10007000C7010008C7010008C7010008C701000840
:10008000C7010008C7010008C70100080000000000
:10009000000000000000000000000000C701000890
:1000A000C7010008C7010008C7010008C701000810
:1000B00051140008C3140008C7010008C701000854
:1000C000C7010008C7010008C7010008C7010008F0
:1000D000C7010008C7010008C701000800000000B0
:1000E000C7010008C7010008C701000800000000A0
:1000F000000000000000000000000000C701000830
:1001000000000000C7010008C7010008C70100087F
:1001100000000000000000000000000000000000DF
:10012000C7010008C7010008C7010008C70100088F
:10013000C7010008000000000000000000000000EF
:10014000000000000000000000000000C7010008DF
:10015000C7010008C7010008C7010008C70100085F
:10016000C7010008C70100080000000000000000EF
:10017000000000000000000000000000000000007F
:1001800000000000C701000800000000000000009F
:10019000C7010008C7010008DFF80CD001F0D4FA4D
:1001A00000480047C713000858040020064880474D
:1001B00006480047FEE7FEE7FEE7FEE7FEE7FEE74C
:1001C000FEE7FEE7FEE7FEE7D1150008990100080B
:1001D0002849084328490860704730B50F23C27882
:1001E00001780125FAB1244A126801F1E02102F4F4
:1001F000E062C2F5E062C2F30722C2F10404D34018
:100200004278A24084781C401443220181F80024E3
:10021000007800F01F018D404009800000F1E020CF
:10022000C0F8005130BD01F01F0085404809800032
:1002300000F1E020C0F8805130BD104A1140014368
:100240000D48001F016070470B4A121D00291168FC
:1002500001D0014300E08143116070474FF0E0217D
:100260000428086903D020F004000861704740F0BA
:100270000400FAE70000FA050CED00E080FFFF1F24
:10028000F648016841F001010160F44A002108329A
:1002900011600268F24B1A400260031DF14A1A60B5
:1002A000EE4BF14A84331A60EE4A103A1B1D1A6075
:1002B000026822F480220260E8480C300160181DB8
:1002C00001607047E5490022891C0A700870704778
:1002D00002460020510901290CD002290CD0DF4927
:1002E0007431096802F01F02012393400B4200D0D1
:1002F00001207047D949F4E7D8497031F1E718B5C2
:1003000000204FF4A04400903120FFF7E1FF009956
:10031000491C0091A14201D00028F5D03120FFF7FF
:10032000D7FF002800D0012018BDCC4A116821F069
:10033000F80141EAC00010607047CC49086070477E
:10034000C649002270310A700A70012802D00428C0
:1003500001D1052008707047C5490860704741EA1F
:1003600082115A0810B5C34B029C03EB02421143A1
:10037000014341EA0460B949091D086010BDBB4949
:1003800008667047800140EA0170B4491043843127
:1003900008607047B54988667047800140EA01608F
:1003A000AE4940EA0270883108607047AF4908677B
:1003B0007047AE49C8647047A84B08331A680843B1
:1003C00022F0EC62104318607047A44B08331A689F
:1003D000084322F078421043186070479F4A083261
:1003E000116821F003010143116070479B480830F8
:1003F000006800F00C007047984A0832116821F03C
:10040000F001014311607047944A0832116821F4E9
:10041000E051014311607047904A0832116821F49D
:10042000604141EAC0001060704770B58B4B0833E3
:100430001968914C11F00C0104D06610042903D006
:10044000082903D004601BE0066019E0834A121DEE
:100450001168C1F38055116801F03F0115B1B6FB79
:10046000F1F101E0B4FBF1F114681268C4F38814EF
:100470006143C2F30142521C5200B1FBF2F1016030
:1004800019680F2202EA11117C4A545C0168E140AC
:1004900041601C68072505EA9424145D21FA04F4E0
:1004A00084601B6805EA5333D25CD140C16070BDE3
:1004B000C0F30121032908D1684B08331968704A39
:1004C00021F4F81102400A431A60644970310A6845
:1004D000C0F30B0002430A60704765494439086065
:1004E000704763494039086070476049C1F85C0152
:1004F00070475A4A8C32116821F44011014311604F
:100500007047564A8C32116821F440010143116052
:100510007047524A8C321168401E21F01F0101437E
:10052000116070474D4A8C3211686FF0FF0321F45F
:10053000F85103EB0020084310607047474A8C32A3
:10054000116821F440310143116070474D49C1F8F1
:10055000E0017047414A30320029116801D001435F
:1005600000E08143116070473C4A34320029116831
:1005700001D0014300E0814311607047374A4032A7
:100580000029116801D0014300E0814311607047E8
:10059000324A44320029116801D0014300E081430E
:1005A000116070472D4A10320029116801D00143B3
:1005B00000E0814311607047284A14320029116815
:1005C00001D0014300E0814311607047234A20328B
:1005D0000029116801D0014300E081431160704798
:1005E0001E4A24320029116801D0014300E08143F2
:1005F00011607047194A50320029116801D0014337
:1006000000E0814311607047144A54320029116898
:1006100001D0014300E08143116070470F4A60320E
:100620000029116801D0014300E081431160704747
:100630000A4A64320029116801D0014300E0814375
:1006400011607047054970310128086803D020F017
:1006500008000860704740F00800FAE700380240E0
:10066000FFFFF6EA1030002400300020000047426F
:10067000800E47420000FFFF0024F400000000202D
:10068000FFFCFF0F001047420E4A0029117801D0ED
:10069000014300E08143117070470A4867300168E8
:1006A00041F08071016070470146064A0020521EE9
:1006B00012680A4200D0012070470249491C0870A4
:1006C000704700000D380240774910B5884206D1C6
:1006D00001210846FFF766FF002101205BE0734916
:1006E000884206D101210220FFF75CFF0021022091
:1006F00051E06F49884206D101210420FFF752FFE3
:100700000021042047E06B49884206D101210820DE
:10071000FFF748FF002108203DE06749884206D1E5
:1007200001211020FFF73EFF0021102033E0634934
:10073000884206D101212020FFF734FF002120202C
:1007400029E05F49884206D101214020FFF72AFFB6
:10075000002140201FE05B49884206D10121802012
:10076000FFF720FF0021802015E05749884202D181
:10077000012184150AE05549884202D1012144151E
:1007800004E0534988420AD1012104152046FFF7AD
:1007900009FF00212046BDE81040FFF703BF10BD50
:1007A000F0B5002201274FF0030C0B6807FA02F5A1
:1007B0002B40AB422CD1066853000CFA03F4A6433D
:1007C00006600E79D0F800E09E4046EA0E0606600C
:1007D0000E79012E01D0022E12D18668A6438660C2
:1007E0004E79D0F808E09E4046EA0E0686604668DC
:1007F000AE43466045688E799640B6B23543456053
:10080000C568A543C560CC799C40C3681C43C460DF
:10081000521C102AC9D3F0BD4FF6FF7101600021B0
:10082000017141718171C171704708B541F4803225
:100830000092C261C1610099C161C169C069009043
:1008400008BD0246002012690A4200D0012070470C
:10085000006980B270470246002052690A4200D007
:1008600001207047406980B270470183704741831F
:1008700070470AB1018370474183704741617047F7
:1008800042694A40426170474B07DB0E9A40C908F3
:1008900010B500EB8100016A0F249C40A143016266
:1008A000016A1143016210BD0000024000040240D1
:1008B00000080240000C02400010024000140240F8
:1008C00000180240001C02400020024000240240A8
:1008D00000280240FE4910B5884206D10121084691
:1008E000FFF77EFE002101205BE0B0F1804F09D0D0
:1008F000F84988420DD101210220FFF767FE00214F
:10090000022070E001210846FFF760FE002101206F
:1009100069E0F149884206D101210420FFF756FE23
:10092000002104205FE0ED49884206D10121082022
:10093000FFF74CFE0021082055E0E949884206D126
:1009400001211020FFF742FE002110204BE0E54975
:10095000884206D101212020FFF738FE0021202007
:1009600041E0E149884206D101210220FFF738FE2B
:100970000021022015E0DD49884202D101210C044A
:100980000AE0DB49884202D101214C0404E0D94944
:1009900088420AD101218C042046FFF721FE002164
:1009A0002046BDE81040FFF71BBED349884206D160
:1009B00001214020FFF70AFE0021402013E0CF492B
:1009C000884206D101218020FFF700FE002180200F
:1009D00009E0CB4988420AD1841501212046FFF75E
:1009E000F5FD00212046BDE81040FFF7EFBD10BD2A
:1009F00030B50288B64CBC4DA0420DD0A8420BD0F9
:100A0000B0F1804F08D0B34B984205D0B24B98421A
:100A100002D0B24B984203D122F070034A881A43A5
:100A2000AF4B984206D0AF4B984203D022F44073AC
:100A30000A891A4302804A68C2620A880285A04273
:100A400001D0A84201D1897A01860121818230BD7D
:100A50004FF0FF31416000210180018141808172AE
:100A60007047018582827047028822F070020A4333
:100A70000280704741627047C1627047406A7047A8
:100A8000008D70470029018802D041F0020101E089
:100A900021F00201018070470029018802D041F055
:100AA000040101E021F00401018070470029018860
:100AB00002D041F0800101E021F080010180704707
:100AC000028822F00802028002880A4302807047EE
:100AD000028822F44072028002880A430280704732
:100AE0000029018802D041F0010101E021F001015B
:100AF0000180704730B5028C22F001020284028C22
:100B00008388048B22F0020224F073050C882C43A6
:100B10008D8915434A882A436D4DA84202D0724DF3
:100B2000A8420DD122F00805CA8923F440732A4354
:100B300022F004058A882A430D8A1D434B8A2B43E1
:100B40008380048389684163028430BD70B5028C60
:100B500022F010020284028C8388048B0D8824F416
:100B6000E6464FF6FF7404EA052535438E8922F0E8
:100B7000200204EA061616434A8804EA02123243A7
:100B8000534EB04202D0584EB04215D122F08006EA
:100B9000CA8923F4406304EA0212324322F0400679
:100BA0008A8804EA021232430E8A04EA86061E4349
:100BB0004B8A04EA83033343838005838968816316
:100BC000028470BD70B5028C22F480720284028CA3
:100BD0008388848B0D8824F0730425438E894FF617
:100BE000FF7422F4007204EA062616434A8804EAD7
:100BF00002223243364EB04202D03B4EB04215D1B3
:100C000022F40066CA8923F4405304EA02223243E4
:100C100022F480668A8804EA022232430E8A04EAB9
:100C200006161E434B8A04EA0313334383808583ED
:100C30008968C163028470BD70B5028C22F4805251
:100C40000284058C8288838B0C8823F4E6464FF659
:100C5000FF7303EA0424344325F400568D8903EA24
:100C6000053535434E8803EA06362E43184DA84213
:100C700002D01D4DA84205D122F480450A8A03EA1C
:100C800082122A438280848389680164068470BD4D
:100C9000002101804180818081608181C181018248
:100CA0004182704730B50124058C00F118038C4057
:100CB000A543058431B308292CD0091FC1F34E0088
:100CC0001844016848F6FF731940016001681AE092
:100CD000000001400004004000080040000C0040FB
:100CE000001000400014004000040140004001409A
:100CF000004401400048014000180040001C004032
:100D00000020004006E04FF6FF7303EA0222114381
:100D1000016030BD03EB510001684FF68F7319403D
:100D200001600168F3E74163704781637047C16305
:100D3000704701647047028B22F070020A430283FD
:100D40007047028B4FF6FF7322F4E04203EA012161
:100D5000114301837047828B22F070020A43828321
:100D60007047828B4FF6FF7322F4E04203EA0121C1
:100D7000114381837047028B22F008020A430283E9
:100D80007047028B4FF6FF7322F4006203EA0121E1
:100D9000114301837047828B22F008020A43828349
:100DA0007047828B4FF6FF7322F4006203EA012141
:100DB000114381837047028B22F004020A430283AD
:100DC0007047028B4FF6FF7322F4806203EA012121
:100DD000114301837047828B22F004020A4382830D
:100DE0007047828B4FF6FF7322F4806203EA012181
:100DF000114381837047028B22F080020A430283F1
:100E00007047028B4FF6FF73C2F30E0203EA012113
:100E1000114301837047828B22F080020A43828350
:100E20007047828B4FF6FF73C2F30E0203EA012173
:100E3000114381837047028C22F002020A4302842C
:100E40007047028C22F008020A4302847047028C29
:100E50004FF6FF7322F0200203EA011111430184CF
:100E60007047028C4FF6FF7322F0800203EA0111F3
:100E7000114301847047028C4FF6FF7322F4007215
:100E800003EA0121114301847047028C4FF6FF737E
:100E900022F4006203EA0121114301847047028CAD
:100EA0004FF6FF7322F4005203EA0131114301842B
:100EB000704710B50123048C8B409C430484038C41
:100EC0008A401343038410BD10B50423048C8B4067
:100ED0009C430484038C8A401343038410BD828B9B
:100EE00022F440628283828B4FF6FF7303EA012172
:100EF0000A4382837047828B22F00C028283828BAA
:100F00000A4382837047028B22F440620283028B81
:100F10004FF6FF7303EA01210A4302837047F0B5DD
:100F2000048C24F010040484078B068C4FF6FF74A5
:100F300004EA011527F4734704EA0331394304EA4C
:100F400002220A4326F0A001294341F01001028346
:100F50000184F0BD028B22F00C020283028B0A4353
:100F6000028370472DE9F0410C460E884988A2881B
:100F7000238905460EB3042E26D0082E2E8C4FF65C
:100F8000FF7028D026F480562E84AF8B2E8C00EA7A
:100F9000022200EA013127F473473A4300EA0330A2
:100FA000104326F420420A4342F48051A883298446
:100FB000E1882846BDE8F04191E700F062F9E18858
:100FC0002846BDE8F041C5E7FFF7A9FFE1882846BC
:100FD000BDE8F04197E726F480762E84AF8B2E8C07
:100FE00000EA012100EA0310104327F0F307384319
:100FF00026F420620A4342F48071A8832984E188A0
:101000002846BDE8F04176E70021018041800122B9
:101010008280C180018170472DE9F0410C46002695
:1010200049880746012501B90226A288012A00D174
:101030000225208823890028384610D0FFF76FFF4B
:10104000E1883846FFF75FFF23892A463146384654
:1010500000F017F9E1883846BDE8F0417AE700F082
:1010600010F9E1883846FFF775FF23892A46314693
:101070003846FFF754FFE1883846BDE8F04142E7C3
:10108000406B7047806B7047C06B7047006C704757
:1010900010B50A884B88CC881A438B8823431A439F
:1010A0000B891A434B8989891A430A43A0F84420C3
:1010B00010BD0021018041808180C180018141817A
:1010C00081817047002930F8441F02D041F400416B
:1010D00001E0C1F30E01018070470029818802D030
:1010E00041F0040101E021F00401818070470029F2
:1010F000818802D041F0010101E021F001018180ED
:101100007047002A828901D00A4300E08A43828125
:1011100070478182704702460020128A0A4200D03E
:1011200001207047C9430182704702460020138A9C
:1011300092890B4202EA010202D0002A00D001206B
:101140007047C943018270471143A0F848107047A7
:10115000002A828901D00A4300E08A4382817047D5
:101160000029818802D041F0080101E021F0080146
:1011700081807047018921F0070101817047028950
:1011800022F070020A430281704700B50346FFF760
:10119000F6FF188940F00700188100BD70B51646AB
:1011A0000D46602904464FF0010231460AD000F096
:1011B00068F829462046FFF7E2FF208940F0070043
:1011C000208170BDFFF7ABFEF3E730B504894FF621
:1011D000FF7505EA03231343E4B20B432343038162
:1011E00030BD10B50446FFF7F0FF208940F07700CE
:1011F000208110BD10B50446FFF7E7FF208940F4B9
:101200008040208110BD828822F070028280828816
:101210000A4382807047028922F007020281028914
:101220000A4302817047028922F08002028102890A
:101230000A430281704770B50589048B068C25F03E
:1012400007050D434FF6FC410C4040F201110C43E1
:101250004FF6FF7101EA031126F0220611433143D4
:1012600005810483018470BD0029818802D041F08A
:10127000800101E021F0800181807047A0F85010CA
:10128000704770B5048C24F001040484058B048C31
:101290004FF6FF7606EA0313134325F0F3052B43BD
:1012A00024F00A020A4342F001010383018470BD65
:1012B000401EFDD170471CB52020009001208DF804
:1012C000040002208DF8050000208DF806008DF83E
:1012D000070001210846FFF73DF96946AE48FFF7D0
:1012E0005FFA1CBD1CB54FF40050009000208DF833
:1012F00004008DF805008DF8060001208DF8070028
:1013000001460420FFF726F96946A448FFF748FA8A
:101310001CBD10B50120FEF7D5FFFEF7F0FF002839
:10132000FBD0FEF7ECFF012800D00020BDE8104004
:10133000FFF754B808B5FFF759F8042108230091C6
:10134000C8221946FFF70BF80120FFF718F83920DB
:10135000FEF7BEFF0028FAD0BDE808400220FFF7E4
:101360003DB8FEB501210220FFF708F90121022056
:10137000FFF7F0F8022103208DF804108DF8050026
:101380000025874E00908DF8065001248DF8074007
:1013900069463046FFF704FA022200213046FFF783
:1013A00073FA022201213046FFF76EFA1D208DF8F4
:1013B00008008DF809508DF80A408DF80B4002A8FE
:1013C000FEF70BFFFEBDFEF75BFFFFF7A2FF00F08D
:1013D00090F8FFF7C6FF00F020F972484FF47A62E8
:1013E000714D00680026B0FBF2F0A988704FB0FB89
:1013F000F1F06E49401E68814A6008800E814E807F
:101400003846FFF7F5FA694C60200C3421462080FD
:10141000A68101266680E888A0603846FFF7D2FBE7
:1014200008213846FFF7B7FC66802889A06021466E
:101430003846FFF701FC08213846FFF7B2FC0121CE
:101440003846FFF733FB01213846FFF749FBFEE73B
:101450007FB56846FEF7E9FF04210D072846FFF730
:1014600070FE2846FFF70EFE4F4C0104090C218048
:1014700023D02846FFF704FE6421484321884FF417
:101480007A62B0FBF1F080B2608050436422B0FB1E
:10149000F2F3474D34352B60B0FBF2F32D1D2B607A
:1014A000B0FBF2F32D1D2B60B0FBF2F02A1D106093
:1014B0003C480068B0FBF1F001E000206080E06093
:1014C0007FBD10B53A4C01212046FFF72EFE0028C3
:1014D0000ED001212046FFF734FE33484FF47A61E5
:1014E000408848436421B0FBF1F031493C31086049
:1014F00010BD70B5012186B00846FFF73FF8012105
:101500000846FFF727F802208DF810008DF811002B
:1015100001240025204E8DF8125003948DF81340BD
:1015200003A93046FFF73CF9012200213046FFF7BE
:10153000ABF91C208DF814008DF815508DF816406D
:101540008DF8174005A8FEF748FE0420ADF80440CA
:10155000ADF800000407ADF80250ADF80650ADF844
:10156000085069462046FFF757FD60212046FFF7E7
:1015700006FE04212046FFF74EFE80212046FFF79D
:1015800052FE01212046FFF7ABFA0122042120463A
:10159000FFF7B7FD06B070BD000002400008024032
:1015A0000004024020000020100000203400002031
:1015B000000400407047FEE7FEE7FEE7FEE77047E5
:1015C00070477047704710B5FFF7FCFF10BD000073
:1015D000534810B5016841F4700101605148016839
:1015E00041F0010101604F4A002108321160026898
:1015F0004D4B1A400260031D4C4A1A60026822F4E7
:101600008022026047480C30016000F039F84449FC
:101610004FF000608039086010BD70B5414E002267
:1016200008363068424B434910F00C0003D00428C0
:1016300003D0082803D00B6018E03F4815E0394874
:10164000001D0468C4F38055046804F03F042DB9FC
:10165000B3FBF4F20368C3F388135A430068C0F382
:101660000140401C4000B2FBF0F008603068314A95
:10167000C0F30310121D105C0A68C2400A6070BDFE
:101680000CB50022274900920192086840F480308E
:1016900008604FF4A043086800F4003001900098FF
:1016A000401C0090019810B900989842F3D1086846
:1016B000800332D5012001901A484030026842F080
:1016C000805202601D48026842F4404202601548A0
:1016D00008300268026002680260026842F48052C8
:1016E0000260031F164A1A600A6842F080720A609C
:1016F0000A689201FCD5134A40F202711160016838
:1017000021F003010160016841F0020101600168FC
:10171000C1F381010229FAD10CBD01920CBD000078
:1017200088ED00E000380240FFFFF6FE1030002494
:101730000024F4002000002000127A000070004015
:1017400010644108003C0240064C074D06E0E0688A
:1017500040F0010394E8070098471034AC42F6D3F8
:10176000FEF71EFD8C170008AC17000802E008C841
:10177000121F08C1002AFAD170477047002001E00B
:1017800001C1121F002AFBD170470000AC170008EE
:1017900000000020340000006C170008E01700086B
:1017A00034000020240400007C1700080000000022
:1017B00001020304010203040607080900000000F7
:1017C0005802A600530000000000000000E1F505EB
:1017D00000000000000000000102030406070809E1
:040000050800019955
:00000001FF
