:020000040800F2
:1000000030140020AD010008D1180008D3180008F2
:10001000D5180008D7180008D918000800000000FB
:10002000000000000000000000000000DB180008D5
:10003000DD18000800000000DF180008E3180008C1
:10004000C7010008C7010008C7010008C701000870
:10005000C7010008C7010008C7010008C701000860
:10006000C7010008C7010008C7010008C701000850
:10007000C7010008C7010008C7010008C701000840
:10008000C7010008C7010008C70100080000000000
:10009000000000000000000000000000C701000890
:1000A000C7010008C7010008C7010008C701000810
:1000B00061180008C7010008C7010008C70100084F
:1000C000C7010008C7010008C7010008C7010008F0
:1000D000C7010008C7010008C701000800000000B0
:1000E000C7010008C7010008C701000800000000A0
:1000F000000000000000000000000000C701000830
:1001000000000000C7010008C7010008C70100087F
:1001100000000000000000000000000000000000DF
:10012000C7010008C7010008C7010008C70100088F
:10013000C7010008000000000000000000000000EF
:10014000000000000000000000000000C7010008DF
:10015000C7010008C7010008C7010008C70100085F
:10016000C7010008C70100080000000000000000EF
:10017000000000000000000000000000000000007F
:1001800000000000C701000800000000000000009F
:10019000C7010008C7010008DFF80CD001F098FD86
:1001A00000480047331800083014002006488047F4
:1001B00006480047FEE7FEE7FEE7FEE7FEE7FEE74C
:1001C000FEE7FEE7FEE7FEE7ED18000899010008EC
:1001D0002849084328490860704730B50F23C27882
:1001E00001780125FAB1244A126801F1E02102F4F4
:1001F000E062C2F5E062C2F30722C2F10404D34018
:100200004278A24084781C401443220181F80024E3
:10021000007800F01F018D404009800000F1E020CF
:10022000C0F8005130BD01F01F0085404809800032
:1002300000F1E020C0F8805130BD104A1140014368
:100240000D48001F016070470B4A121D00291168FC
:1002500001D0014300E08143116070474FF0E0217D
:100260000428086903D020F004000861704740F0BA
:100270000400FAE70000FA050CED00E080FFFF1F24
:10028000F648016841F001010160F44A002108329A
:1002900011600268F24B1A400260031DF14A1A60B5
:1002A000EE4BF14A84331A60EE4A103A1B1D1A6075
:1002B000026822F480220260E8480C300160181DB8
:1002C00001607047E5490022891C0A700870704778
:1002D00002460020510901290CD002290CD0DF4927
:1002E0007431096802F01F02012393400B4200D0D1
:1002F00001207047D949F4E7D8497031F1E718B5C2
:1003000000204FF4A04400903120FFF7E1FF009956
:10031000491C0091A14201D00028F5D03120FFF7FF
:10032000D7FF002800D0012018BDCC4A116821F069
:10033000F80141EAC00010607047CC49086070477E
:10034000C649002270310A700A70012802D00428C0
:1003500001D1052008707047C5490860704741EA1F
:1003600082115A0810B5C34B029C03EB02421143A1
:10037000014341EA0460B949091D086010BDBB4949
:1003800008667047800140EA0170B4491043843127
:1003900008607047B54988667047800140EA01608F
:1003A000AE4940EA0270883108607047AF4908677B
:1003B0007047AE49C8647047A84B08331A680843B1
:1003C00022F0EC62104318607047A44B08331A689F
:1003D000084322F078421043186070479F4A083261
:1003E000116821F003010143116070479B480830F8
:1003F000006800F00C007047984A0832116821F03C
:10040000F001014311607047944A0832116821F4E9
:10041000E051014311607047904A0832116821F49D
:10042000604141EAC0001060704770B58B4B0833E3
:100430001968914C11F00C0104D06610042903D006
:10044000082903D004601BE0066019E0834A121DEE
:100450001168C1F38055116801F03F0115B1B6FB79
:10046000F1F101E0B4FBF1F114681268C4F38814EF
:100470006143C2F30142521C5200B1FBF2F1016030
:1004800019680F2202EA11117C4A545C0168E140AC
:1004900041601C68072505EA9424145D21FA04F4E0
:1004A00084601B6805EA5333D25CD140C16070BDE3
:1004B000C0F30121032908D1684B08331968704A39
:1004C00021F4F81102400A431A60644970310A6845
:1004D000C0F30B0002430A60704765494439086065
:1004E000704763494039086070476049C1F85C0152
:1004F00070475A4A8C32116821F44011014311604F
:100500007047564A8C32116821F440010143116052
:100510007047524A8C321168401E21F01F0101437E
:10052000116070474D4A8C3211686FF0FF0321F45F
:10053000F85103EB0020084310607047474A8C32A3
:10054000116821F440310143116070474D49C1F8F1
:10055000E0017047414A30320029116801D001435F
:1005600000E08143116070473C4A34320029116831
:1005700001D0014300E0814311607047374A4032A7
:100580000029116801D0014300E0814311607047E8
:10059000324A44320029116801D0014300E081430E
:1005A000116070472D4A10320029116801D00143B3
:1005B00000E0814311607047284A14320029116815
:1005C00001D0014300E0814311607047234A20328B
:1005D0000029116801D0014300E081431160704798
:1005E0001E4A24320029116801D0014300E08143F2
:1005F00011607047194A50320029116801D0014337
:1006000000E0814311607047144A54320029116898
:1006100001D0014300E08143116070470F4A60320E
:100620000029116801D0014300E081431160704747
:100630000A4A64320029116801D0014300E0814375
:1006400011607047054970310128086803D020F017
:1006500008000860704740F00800FAE700380240E0
:10066000FFFFF6EA1030002400300020000047426F
:10067000800E47420000FFFF0024F400000000202D
:10068000FFFCFF0F001047420E4A0029117801D0ED
:10069000014300E08143117070470A4867300168E8
:1006A00041F08071016070470146064A0020521EE9
:1006B00012680A4200D0012070470249491C0870A4
:1006C000704700000D380240774910B5884206D1C6
:1006D00001210846FFF766FF002101205BE0734916
:1006E000884206D101210220FFF75CFF0021022091
:1006F00051E06F49884206D101210420FFF752FFE3
:100700000021042047E06B49884206D101210820DE
:10071000FFF748FF002108203DE06749884206D1E5
:1007200001211020FFF73EFF0021102033E0634934
:10073000884206D101212020FFF734FF002120202C
:1007400029E05F49884206D101214020FFF72AFFB6
:10075000002140201FE05B49884206D10121802012
:10076000FFF720FF0021802015E05749884202D181
:10077000012184150AE05549884202D1012144151E
:1007800004E0534988420AD1012104152046FFF7AD
:1007900009FF00212046BDE81040FFF703BF10BD50
:1007A000F0B5002201274FF0030C0B6807FA02F5A1
:1007B0002B40AB422CD1066853000CFA03F4A6433D
:1007C00006600E79D0F800E09E4046EA0E0606600C
:1007D0000E79012E01D0022E12D18668A6438660C2
:1007E0004E79D0F808E09E4046EA0E0686604668DC
:1007F000AE43466045688E799640B6B23543456053
:10080000C568A543C560CC799C40C3681C43C460DF
:10081000521C102AC9D3F0BD4FF6FF7101600021B0
:10082000017141718171C171704708B541F4803225
:100830000092C261C1610099C161C169C069009043
:1008400008BD0246002012690A4200D0012070470C
:10085000006980B270470246002052690A4200D007
:1008600001207047406980B270470183704741831F
:1008700070470AB1018370474183704741617047F7
:1008800042694A40426170474B07DB0E9A40C908F3
:1008900010B500EB8100016A0F249C40A143016266
:1008A000016A1143016210BD0000024000040240D1
:1008B00000080240000C02400010024000140240F8
:1008C00000180240001C02400020024000240240A8
:1008D00000280240C14910B5884202D10121841488
:1008E00024E0BF49884202D10121041404E0BD493B
:1008F00088420AD10121C4132046FFF767FE204633
:10090000BDE810400021FFF761BEB749884202D11F
:10091000012144140AE0B549884202D101210C05A5
:1009200004E0B34988420AD101214C052046FFF773
:1009300057FE2046BDE810400021FFF751BE10BD14
:1009400030B502884C8802F441530A88CD8822438E
:100950008C882C4322430C8922434C8922438C8966
:100960002243CC8922431A430280828B22F4006204
:100970008283098A018230BDF0B502220023858B73
:1009800001244FF24006354085830284868B8D68B2
:10099000022D3DD08A8802B10224964A13681B02B8
:1009A00003D5136823F400031360924A7C32136862
:1009B0001268C3F388138F4FC2F302723F1F3D6862
:1009C0003F6805F03F057F0201D58B4F00E08B4F5C
:1009D000B7FBF5F55D43B5FBF2F2CB88B3F5007FCD
:1009E0002BD06301B2FBF3F202EB82028B68520060
:1009F000B2FBF3F2521D92B20A23B2FBF3F202F001
:100A00000103D21A4FF6FF74C2F34F0204EA032324
:100A1000941EFE2C01D302220023CC881A431443D7
:100A200004840A884B881A438B8889890B431A43AC
:100A3000324342F400618183F0BD120AD4E7002101
:100A4000018041808180C180018141818181C1819A
:100A50000721018270470021018041808180C1808F
:100A600002228260818170470029018802D041F012
:100A7000400101E021F04001018070470029818B95
:100A800002D041F4806101E021F4806181837047EC
:100A9000028822F40062028002880A4302807047C2
:100AA000B1F5804F018803D021F480410180704767
:100AB00041F48041FAE7A1F57E420188FF3A02D075
:100AC00041F4807101E021F48071018070470029B8
:100AD000818802D041F0040101E021F0040181800D
:100AE00070470029818802D041F0100101E021F017
:100AF00010018180704730B5828B00234FF2400493
:100B00002240828302220284848B0A884FF48075FB
:100B1000B2F5007F00D002B92B464A888D888989BA
:100B20002A4319430A43224342F40061818330BDC2
:100B300080897047818170470029018802D041F483
:100B4000005101E021F4005101807047018841F417
:100B5000805101807047012901D0008B7047808A45
:100B60007047008A7047002A828801D00A4300E05B
:100B70008A4382807047090901238B40002A8288BA
:100B800099B201D00A4300E08A438280704702464E
:100B9000002012890A4200D001207047C943018118
:100BA000704730B501F00F030125024605FA03F442
:100BB0000020A3B2090905FA01F49188A4B21289B0
:100BC00021401A4202D0002900D0012030BD01F09E
:100BD0000F0201219140C94301817047003001405B
:100BE00000380040003C004000340140005001400B
:100BF000005401400838024000127A000024F4003A
:100C0000FE4910B5884206D101210846FFF7E8FCED
:100C1000002101205BE0B0F1804F09D0F849884203
:100C20000DD101210220FFF7D1FC0021022070E04C
:100C300001210846FFF7CAFC0021012069E0F149C3
:100C4000884206D101210420FFF7C0FC00210420C6
:100C50005FE0ED49884206D101210820FFF7B6FC8C
:100C60000021082055E0E949884206D101211020E1
:100C7000FFF7ACFC002110204BE0E549884206D18B
:100C800001212020FFF7A2FC0021202041E0E149C2
:100C9000884206D101210220FFF7A2FC0021022098
:100CA00015E0DD49884202D101210C040AE0DB494C
:100CB000884202D101214C0404E0D94988420AD17A
:100CC00001218C042046FFF78BFC00212046BDE863
:100CD0001040FFF785BCD349884206D1012140204E
:100CE000FFF774FC0021402013E0CF49884206D171
:100CF00001218020FFF76AFC0021802009E0CB4918
:100D000088420AD1841501212046FFF75FFC0021AB
:100D10002046BDE81040FFF759BC10BD30B5028831
:100D2000B64CBC4DA0420DD0A8420BD0B0F1804FC4
:100D300008D0B34B984205D0B24B984202D0B24B88
:100D4000984203D122F070034A881A43AF4B98426D
:100D500006D0AF4B984203D022F440730A891A435D
:100D600002804A68C2620A880285A04201D0A84275
:100D700001D1897A01860121818230BD4FF0FF3196
:100D800041600021018001814180817270470185AD
:100D900082827047028822F070020A430280704704
:100DA00041627047C1627047406A7047008D70476A
:100DB0000029018802D041F0020101E021F0020186
:100DC000018070470029018802D041F0040101E050
:100DD00021F00401018070470029018802D041F010
:100DE000800101E021F0800101807047028822F03B
:100DF0000802028002880A4302807047028822F4B7
:100E00004072028002880A430280704700290188EC
:100E100002D041F0010101E021F0010101807047A1
:100E200030B5028C22F001020284028C8388048B8C
:100E300022F0020224F073050C882C438D8915439F
:100E40004A882A436D4DA84202D0724DA8420DD166
:100E500022F00805CA8923F440732A4322F00405CE
:100E60008A882A430D8A1D434B8A2B43838004833F
:100E700089684163028430BD70B5028C22F0100293
:100E80000284028C8388048B0D8824F4E6464FF696
:100E9000FF7404EA052535438E8922F0200204EA16
:100EA000061616434A8804EA02123243534EB042F1
:100EB00002D0584EB04215D122F08006CA8923F4E0
:100EC000406304EA0212324322F040068A8804EAB0
:100ED000021232430E8A04EA86061E434B8A04EA53
:100EE000830333438380058389688163028470BDF3
:100EF00070B5028C22F480720284028C8388848B09
:100F00000D8824F0730425438E894FF6FF7422F474
:100F1000007204EA062616434A8804EA0222324393
:100F2000364EB04202D03B4EB04215D122F400669C
:100F3000CA8923F4405304EA0222324322F4806631
:100F40008A8804EA022232430E8A04EA06161E4305
:100F50004B8A04EA03133343838085838968C16322
:100F6000028470BD70B5028C22F480520284058C1C
:100F70008288838B0C8823F4E6464FF6FF7303EADE
:100F80000424344325F400568D8903EA053535439E
:100F90004E8803EA06362E43184DA84202D01D4D56
:100FA000A84205D122F480450A8A03EA82122A4324
:100FB0008280848389680164068470BD0021018079
:100FC0004180818081608181C1810182418270473D
:100FD00030B50124058C00F118038C40A54305842D
:100FE00031B308292CD0091FC1F34E001844016801
:100FF00048F6FF731940016001681AE000000140E3
:101000000004004000080040000C004000100040B8
:101010000014004000040140004001400044014031
:101020000048014000180040001C00400020004023
:1010300006E04FF6FF7303EA02221143016030BD60
:1010400003EB510001684FF68F731940016001688E
:10105000F3E74163704781637047C1637047016480
:101060007047028B22F070020A4302837047028BA2
:101070004FF6FF7322F4E04203EA0121114301839A
:101080007047828B22F070020A4382837047828B02
:101090004FF6FF7322F4E04203EA012111438183FA
:1010A0007047028B22F008020A4302837047028BCA
:1010B0004FF6FF7322F4006203EA0121114301831A
:1010C0007047828B22F008020A4382837047828B2A
:1010D0004FF6FF7322F4006203EA0121114381837A
:1010E0007047028B22F004020A4302837047028B8E
:1010F0004FF6FF7322F4806203EA0121114301835A
:101100007047828B22F004020A4382837047828BED
:101110004FF6FF7322F4806203EA012111438183B9
:101120007047028B22F080020A4302837047028BD1
:101130004FF6FF73C2F30E0203EA0121114301834C
:101140007047828B22F080020A4382837047828B31
:101150004FF6FF73C2F30E0203EA012111438183AC
:101160007047028C22F002020A4302847047028C0C
:1011700022F008020A4302847047028C4FF6FF7384
:1011800022F0200203EA0111114301847047028C0E
:101190004FF6FF7322F0800203EA0111114301842C
:1011A0007047028C4FF6FF7322F4007203EA0121AC
:1011B000114301847047028C4FF6FF7322F40062E2
:1011C00003EA0121114301847047028C4FF6FF733B
:1011D00022F4005203EA013111430184704710B533
:1011E0000123048C8B409C430484038C8A4013436A
:1011F000038410BD10B50423048C8B409C430484ED
:10120000038C8A401343038410BD828B22F4406216
:101210008283828B4FF6FF7303EA01210A438283A4
:101220007047828B22F00C028283828B0A43828376
:101230007047028B22F440620283028B4FF6FF73E9
:1012400003EA01210A4302837047F0B5048C24F0BD
:1012500010040484078B068C4FF6FF7404EA011512
:1012600027F4734704EA0331394304EA02220A43AC
:1012700026F0A001294341F0100102830184F0BD52
:10128000028B22F00C020283028B0A430283704716
:101290002DE9F0410C460E884988A288238905462D
:1012A0000EB3042E26D0082E2E8C4FF6FF7028D0B9
:1012B00026F480562E84AF8B2E8C00EA022200EAA0
:1012C000013127F473473A4300EA0330104326F410
:1012D00020420A4342F48051A8832984E1882846A9
:1012E000BDE8F04191E700F062F9E1882846BDE8E9
:1012F000F041C5E7FFF7A9FFE1882846BDE8F041C6
:1013000097E726F480762E84AF8B2E8C00EA01219D
:1013100000EA0310104327F0F307384326F4206255
:101320000A4342F48071A8832984E1882846BDE8F5
:10133000F04176E700210180418001228280C18056
:10134000018170472DE9F0410C4600264988074687
:10135000012501B90226A288012A00D10225208890
:1013600023890028384610D0FFF76FFFE188384600
:10137000FFF75FFF23892A463146384600F017F908
:10138000E1883846BDE8F0417AE700F010F9E188DD
:101390003846FFF775FF23892A4631463846FFF75E
:1013A00054FFE1883846BDE8F04142E7406B7047A2
:1013B000806B7047C06B7047006C704710B50A882F
:1013C0004B88CC881A438B8823431A430B891A43D2
:1013D0004B8989891A430A43A0F8442010BD002193
:1013E000018041808180C18001814181818170477C
:1013F000002930F8441F02D041F4004101E0C1F35C
:101400000E01018070470029818802D041F004015B
:1014100001E021F00401818070470029818802D019
:1014200041F0010101E021F0010181807047002AB3
:10143000828901D00A4300E08A4382817047818219
:10144000704702460020128A0A4200D001207047ED
:10145000C9430182704702460020138A92890B42D9
:1014600002EA010202D0002A00D001207047C943DD
:10147000018270471143A0F848107047002A828902
:1014800001D00A4300E08A438281704700298188A5
:1014900002D041F0080101E021F00801818070478D
:1014A000018921F0070101817047028922F0700251
:1014B0000A430281704700B50346FFF7F6FF18891B
:1014C00040F00700188100BD70B516460D46602932
:1014D00004464FF0010231460AD000F068F8294670
:1014E0002046FFF7E2FF208940F00700208170BD11
:1014F000FFF7ABFEF3E730B504894FF6FF7505EA59
:1015000003231343E4B20B432343038130BD10B5DF
:101510000446FFF7F0FF208940F07700208110BDDE
:1015200010B50446FFF7E7FF208940F48040208192
:1015300010BD828822F07002828082880A438280F5
:101540007047028922F00702028102890A43028160
:101550007047028922F08002028102890A430281D7
:10156000704770B50589048B068C25F007050D437F
:101570004FF6FC410C4040F201110C434FF6FF7155
:1015800001EA031126F02206114331430581048349
:10159000018470BD0029818802D041F0800101E002
:1015A00021F0800181807047A0F85010704770B51D
:1015B000048C24F001040484058B048C4FF6FF7620
:1015C00006EA0313134325F0F3052B4324F00A0224
:1015D0000A4342F001010383018470BD401EFDD126
:1015E00070471CB52020009001208DF804000220D7
:1015F0008DF8050000208DF806008DF80700012108
:101600000846FEF7A7FF6946A648FFF7C9F81CBDC4
:101610001CB54FF40050009000208DF804008DF8A8
:1016200005008DF8060001208DF807000146042012
:10163000FEF790FF69469C48FFF7B2F81CBD10B555
:101640000120FEF73FFEFEF75AFE0028FBD0FEF712
:1016500056FE012800D00020BDE81040FEF7BEBEB7
:1016600008B5FEF7C3FE042108230091C8221946DD
:10167000FEF775FE0120FEF782FE3920FEF728FEF8
:101680000028FAD0BDE808400220FEF7A7BE1CB52E
:1016900001210220FEF75EFF0820009001208DF856
:1016A000040000208DF8060002218DF805108DF849
:1016B000070069467D48FFF773F87C4818300188B9
:1016C00041F0080101801CBD30B5012187B008033D
:1016D000FEF75EFFE020059002208DF81800002440
:1016E0008DF81A408DF819006E4D8DF81B4005A934
:1016F0002846FFF755F8052211462846FFF7C4F89B
:10170000052206212846FFF7BFF8052207212846B3
:10171000FFF7BAF8ADF800404FF48270ADF8020060
:10172000E814ADF80400ADF808404FF44070ADF88F
:101730000A003820ADF80C00ADF80640ADF80E40B8
:101740005B4C69462046FFF7FBF801212046FFF776
:101750008BF907B030BD3EB501210846FEF70EFFFC
:1017600042F20F70ADF800000020411EADF80800F5
:10177000ADF8020001918DF80A004FF080446946EF
:101780002046FFF7CBFA012211462046FFF74FFE15
:1017900001212046FFF73AFB3EBD08B51C208DF81D
:1017A000000000208DF8010001208DF802008DF866
:1017B00003006846FEF711FD08BD3D498881088990
:1017C0008007FCD508890006FCD48889C0B2704720
:1017D00070B53D4D00242DED068B4FF480669FEDD6
:1017E000358ADFED358A9FED359B9FED36AA18EEE1
:1017F000100A00F0A9F941EC100B00F019FC53ECB1
:10180000192B51EC100B00F02DF900F0B0F900EE9F
:10181000100A38EE288A30EE0A0ABDEEC00A10EE31
:10182000100A45F82400641CB442E0DDBDEC068BD0
:1018300070BDFEF725FDFFF702FFFFF7C9FFFFF7B9
:1018400043FFFFF724FF4FF4FA70FFF784FFFFF721
:10185000A4FF4FF480610020401C8842FCDDFAE7C1
:1018600010B501218C072046FFF7F5FD002818D0A0
:1018700001212046FFF7FBFD0C481A30018841F09A
:1018800008010180114A1048118810F82100491CF4
:101890001180FFF792FF05481830018841F00801D8
:1018A000018010BD00000240000802400004024018
:1018B0000030014000000000D80FC93B00000000CC
:1018C00000FC9F4000E0FF442C000020100000209E
:1018D0007047FEE7FEE7FEE7FEE770477047704798
:1018E000704710B5FFF7FCFF10BD0000534810B55E
:1018F000016841F4700101605148016841F0010143
:1019000001604F4A00210832116002684D4B1A40B5
:101910000260031D4C4A1A60026822F480220260B1
:1019200047480C30016000F039F844494FF000603E
:101930008039086010BD70B5414E0022083630680D
:10194000424B434910F00C0003D0042803D0082870
:1019500003D00B6018E03F4815E03948001D0468CB
:10196000C4F38055046804F03F042DB9B3FBF4F2CE
:101970000368C3F388135A430068C0F30140401C56
:101980004000B2FBF0F008603068314AC0F3031049
:10199000121D105C0A68C2400A6070BD0CB50022BE
:1019A000274900920192086840F4803008604FF4A3
:1019B000A043086800F4003001900098401C00909B
:1019C000019810B900989842F3D10868800332D585
:1019D000012001901A484030026842F080520260B3
:1019E0001D48026842F4404202601548083002680F
:1019F000026002680260026842F480520260031FC3
:101A0000164A1A600A6842F080720A600A689201F7
:101A1000FCD5134A40F202711160016821F0030104
:101A20000160016841F0020101600168C1F38101B8
:101A30000229FAD10CBD01920CBD000088ED00E036
:101A400000380240FFFFF6FE103000240024F400AE
:101A50001400002000127A00007000401064410859
:101A6000003C02402DE9FE4F81EA030404F00044EB
:101A700021F0004100944FF0000B23F0004350EAA6
:101A800001045ED052EA03045BD0C3F30A54C1F3ED
:101A90000A552C44A4F2F3340194A0FB0254C1F380
:101AA000130141F48011C3F3130343F4801301FBCA
:101AB000024400FB034E840A970A44EA815447EA31
:101AC0008357A4FB076802958D0A05FB07854FEA3B
:101AD000932C04FB0C542705029D4FEA065847EA55
:101AE0001637B5EB08056EEB070C870E920E47EA2A
:101AF000811742EA8312A7FB0201B6EB0B0164EBEC
:101B000000042B0D43EA0C335E1844EB1C50DA46FC
:101B10005146E7FB0201C5F313044FEA0B3343EAD6
:101B200014534FEA0432019C43EA0603A4F10C0467
:101B30000294009CCDE900B400F07BF803B0BDE84E
:101B4000F08F00200146F9E700F0004230F000403D
:101B50000AD0C10D01F56071C0F3160042EA0151CF
:101B6000C20840071143704700200146704701F04A
:101B7000004330B421F0004150EA010206D00A0DC2
:101B8000A2F56072C1F31301002A02DC30BC002010
:101B90007047440F44EAC104C100E01830BC00EBB8
:101BA000C250AFF300800029A8BF7047401C490015
:101BB00008BF20F00100704710B4B0FA80FC00FAB2
:101BC0000CF050EA010404BF10BC704749B1CCF1DD
:101BD000200421FA04F411FA0CF118BF0121214369
:101BE0000843A3EB0C01CB1D4FEA00614FEA102024
:101BF00042BF002010BC704700EBC35010440029C6
:101C0000A4BF10BC7047401C490008BF20F0010071
:101C100010BC704710B5141E73F1000408DA401CA4
:101C200041F1000192185B411A4301D120F00100FB
:101C300010BD2DE9F04D92469B4611B1B1FA81F2EB
:101C400002E0B0FA80F22032904600F053F80446E9
:101C50000F4640EA0A0041EA0B0153465A46084340
:101C600013D0114653EA010019D0C8F14002504682
:101C700000F04FF805460E4650465946424600F0E1
:101C800039F8084305D0012004E020463946BDE874
:101C9000F08D0020054346EAE0762C4337430A984E
:101CA0006305E40AA0EB08000022FD0A44EA475459
:101CB0000A3002D500200146E9E701051019694103
:101CC000DDE9084500196941BDE8F04DA2E70000D3
:101CD000064C074D06E0E06840F0010394E8070079
:101CE00098471034AC42F6D3FEF75AFA882A000817
:101CF000A82A0008202A04DB203A00FA02F100207A
:101D000070479140C2F1200320FA03F31943904039
:101D10007047202A04DB203A21FA02F000217047A4
:101D200021FA02F3D040C2F1200291400843194643
:101D300070472DE9FE4F804681EA0300C00F0C4634
:101D4000009021F0004123F00045B8EB0200A941CA
:101D500005D24046214690461C460B46024623F0DB
:101D60000040104347D0270DC7F30A00C3F30A51C0
:101D70000290401A019040286BDAC3F3130040F43C
:101D8000801B0098924620B10023D2EB030A63EB3C
:101D90000B0B01985946C0F140025046FFF7AAFFCD
:101DA00006460D4650465946019A00F015F910EBCB
:101DB00008006141002487EA115284EAE7731A435C
:101DC00040D0009A62B3019A012A4FEA075215DC0B
:101DD000001B61EB02014FF0004202EA0752CDE91D
:101DE0000042001C41F5801132462B46FFF721FFCF
:101DF00003B0BDE8F08F40462146F9E7001B61EBD8
:101E00000201001C41F5801300185B412018A2F567
:101E1000001747EB030140EAD570B6196D4111E098
:101E20006D084FEA360645EAC0754FEA0752001BB7
:101E300061EB0201001C41F5801149084FEA3000B6
:101E40000019514132462B4603B0BDE8F04FFFF771
:101E5000E1BE0098012240000023D0EB020263EBB8
:101E6000E073009821464FEAE074B8EB000061EBA4
:101E70000401E9E783F000435BE781F0004158E7A4
:101E80002DE9F04D81EA030404F0004B21F00045F8
:101E900014464FF0000A23F0004150EA050220D01A
:101EA00054EA01021DD0C5F30A570246C5F31303D5
:101EB000C1F31300C1F30A5640F4801543F48013B4
:101EC000A7EB0608101BD64608F2FD3873EB050099
:101ED00002D308F1010801E092185B41B8F1000F4C
:101EE00003DA00200146BDE8F08D00204FF4801198
:101EF000064684460EE0171B73EB050705D3121B3D
:101F000063EB050306434CEA010C49084FEA300035
:101F100092185B4150EA0107EDD152EA030012D05A
:101F200082EA040083EA0501084305D0101BAB4197
:101F300006D20122002306E000224FF0004302E017
:101F40006FF0010253101AEB06004CEB085110EB36
:101F50000A0041EB0B01BDE8F04DFFF75BBE0EB58B
:101F6000C10F80EAE0700844CA07002140F2334301
:101F70008DE80E000A460B46FFF75BFE03B000BD7E
:101F80000EB540F2334102910021CDE900110A461D
:101F90000B46FFF74EFE03B000BD70B5C1F30A5209
:101FA00001F000450024C1F3130140F2FF3341F476
:101FB00080119A4201DA002070BD40F233439A4208
:101FC000A2F2334203DC5242FFF7A3FE00E090404E
:101FD0002C43F1D0404270BD202A06DBCB17203ABB
:101FE00041FA02F043EAE07306E041FA02F3D0401E
:101FF000C2F12002914008431946704703B401988A
:102000004100009850EAC12018BF04204A0D18BFB3
:1020100040F0010040F2FF72B2EB515F08BF40F0A8
:102020000200012808BF052002B070470000000030
:1020300010B52F499FED2C1B2DED020B84B0059898
:1020400020F000408842DCBF00209DED040B32DD13
:102050002849884209D1049840B94FF0010000F0A6
:102060006FFC00F03DFC06B010BD05DB9DED040BE0
:1020700000F02AFC06B010BD68469DED040B00F090
:102080003BF810F0030011D0012818D09DED021B81
:102090009DED000B02281AD000F04AFA51EC100B0B
:1020A00081F0004106B041EC100B10BD9DED021B0C
:1020B0009DED000B012000F06FFB06B010BD9DED03
:1020C000021B9DED000B00F033FA06B010BD01209D
:1020D00000F062FB51EC100B81F0004106B041ECC6
:1020E000100B10BD00000000000000000000000008
:1020F000FB21E93F0000F07F2DE9F14F04462DED73
:10210000020B2DED088B8AB09FEDE70B80ED020BE3
:10211000139EE74826F0004585420ADC9DED120B30
:10212000002084ED000B0AB0BDEC088B03B0BDE8C5
:10213000F08FE0489FEDE0AB9FEDE1BBA84247DDAB
:10214000E14F9FEDE39B9FEDE48B9DED120B53EC74
:102150001A2B51EC100B002E1CDDFFF78BFE41EC0F
:10216000100BBD4208D053EC1B2B51EC100BFFF7AA
:1021700081FEC4E900010BE053EC192B51EC100B6C
:10218000FFF778FE53EC182BFFF774FEC4E900014B
:102190000120C8E7FFF7CDFD41EC100BBD4208D090
:1021A00053EC1B2B51EC100BFFF7C3FDC4E90001EE
:1021B0000BE053EC192B51EC100BFFF7BAFD53EC6D
:1021C000182BFFF7B6FDC4E900014FF0FF30AAE776
:1021D000C348A84279DB9DED120B51EC100B00F0C7
:1021E000B5FB41EC180B9FEDC00B53EC102BFFF728
:1021F00039FC9FEDBF1B53EC112BFFF79AFDFFF746
:10220000CCFE0746FFF7ABFE41EC190B53EC1A2B43
:10221000FFF728FC53EC182BFFF72FFE41EC180BAF
:1022200053EC1B2B51EC190BFFF71CFCDFF8C8A279
:1022300041EC100B4FEA15580125FA4453EC102BD2
:1022400051EC180BFFF716FE032DC4E900013DD039
:10225000C1F30A5005EB4511A8EB0000113981428A
:1022600034DA0AEB051BB0EE48AA9BED000BF0EE4A
:1022700068AA53EC102B51EC190BFFF7F3FB41EC60
:102280001B0B51EC1A0B53EC1B2BFFF7F3FD41EC2E
:10229000180B51EC1A0B53EC182BFFF7EBFD53EC1A
:1022A0001B2BFFF7E7FD9BED020B41EC1A0B53ECE8
:1022B000102B51EC190BFFF7D5FB53EC1A2BFFF742
:1022C000D9FD41EC100B6D1CB8E70EE0002EA8BF45
:1022D0003846BFF628AF94ED000B51EC100B81F09F
:1022E0000041C4E9000178421DE7C6F3130040F441
:1022F000801EC6F30A50A0F2F530471100F01F050A
:10230000C5F12000DDF848B0089000200690079045
:102310000520EC467949002D07EB0002794408BFFF
:1023200051F8221009D051F8223001EB8201AB4064
:102330004A68089922FA01F11943A1FB0E26A1FB74
:102340000B131A449A4234BF0123002303EB0608FF
:102350000CEB8003D3E901A60E448E4234BF012169
:10236000002192448A4411B1924502D903E092457A
:1023700001D2012100E00021C3E901A641444CF84B
:102380002010011EA0F10100C4DC029800F10050F1
:10239000850F0298DDE903678000DDF81480FFF700
:1023A000DEFD41EC1A0B3046FFF7EAFD9FED541BB2
:1023B00053EC112BFFF756FB41EC1B0B3846FFF794
:1023C000DFFD9FED511B53EC112BFFF74BFB41EC55
:1023D000180B4046FFF7D4FD9FED4D1B53EC112B1E
:1023E000FFF740FB41EC190B51EC180B53EC192B88
:1023F000FFF79FFC53EC1B2BFFF79BFC53EC1A2BB6
:10240000FFF797FCCDE90801002008909DED080B2F
:1024100053EC1A2B51EC100BFFF72CFD53EC1B2B3C
:10242000FFF728FD53EC182BFFF724FD53EC192B75
:10243000FFF723FD9FED381B53EC112BFFF712FB29
:102440009FED370B41EC180B53EC102B9DED080B57
:1024500051EC100BFFF706FB53EC182BFFF769FC50
:102460009FED310B41EC180B53EC102B9DED080B3D
:1024700051EC100BFFF7F6FA53EC182BFFF759FC51
:1024800041EC100B139810F0004F06D06D4251EC48
:10249000100B81F0004141EC100B284684ED000B3D
:1024A00041E6000000000000000000000000000005
:1024B000FB21E93F7CD9024000004054FB21F93F59
:1024C0003163621A61B4D03DFB21F93F0000000086
:1024D0000000601A61B4D03D7370032E8A19A33BCB
:1024E000FB2139410000000083C8C96D305FE43F23
:1024F000000000000000E03F5A070000A8060000AE
:10250000000000000000103E000000000000103C31
:10251000000000000000103A182D4454FB21F93D42
:102520003326A611460B113C00000054FB21F93D57
:1025300010B52DED040B2DED088B82B0B0EE419A55
:10254000F0EE619A0B9820F000449FED4BABB4F194
:10255000795F11DA9DED0A0B51EC100BFFF71DFDB1
:10256000002801BFB0EE4A0AF0EE6A0A02B0BDECE4
:10257000088B04BF04B010BD9DED0A0B53EC102B6B
:1025800051EC100BFFF76EFA41EC180B3C4806219A
:10259000B0EE480AF0EE680A784400F081F853EC97
:1025A000182B51EC100BFFF75DFA9DED0A0B41EC77
:1025B0001B0B53EC192B51EC100BFFF753FA41ECAA
:1025C000190B53EC1B2B51EC180BFFF74BFA53EC88
:1025D000192BFFF74FFC9FED2C0B41EC190B53EC23
:1025E000102B51EC180BFFF73DFA41EC100B28486B
:1025F000844210DA53EC192B51EC100BFFF73AFC24
:1026000053EC1A2BFFF739FC41EC100B02B0BDEC78
:10261000088B04B010BD1F48A042BCBF9FED1E1B1D
:102620008DED001B06DBA4F500100190002000904A
:102630009DED001B51EC100B53EC112BFFF71AFC16
:102640009DED000B41EC180B53EC102B51EC1A0BC9
:10265000FFF710FC41EC1A0B53EC192B51EC180B43
:10266000FFF708FC53EC1A2BFFF707FC41EC100BAB
:10267000CCE7000000000000000000000000F03F78
:10268000CC03000000000000000000000000E03F5C
:102690003333D33F0000E93F000000000000D23F89
:1026A00070B504462DED028B4D1E00EBC500B0EE5B
:1026B000408AF0EE608A90ED000B35F0060017D0EE
:1026C00053EC182B51EC100BFFF7CCF941EC100B2D
:1026D0006D1E04EBC50090ED001B51EC100B53EC8C
:1026E000112BFFF726FB41EC100B35F00600E7D16C
:1026F000022D36D0042D1CD0062D1CBFBDEC028B44
:1027000070BD53EC182B51EC100BFFF7ABF994EDA7
:102710000A1B53EC112BFFF70CFB53EC182BFFF7A4
:10272000A1F994ED081B53EC112BFFF702FB41ECD0
:10273000100B53EC182B51EC100BFFF793F994EDA1
:10274000061B53EC112BFFF7F4FA53EC182BFFF791
:1027500089F994ED040B53EC102BFFF7EAFA41ECE6
:10276000100B53EC182B51EC100BFFF77BF994ED89
:10277000021B53EC112BFFF7DCFA53EC182BFFF77D
:1027800071F994ED001B53EC112BFFF7D2FABDEC5D
:10279000028B41EC100B70BD31B504462DED040BDE
:1027A0002DED0A8BB0EE41BAF0EE61BA0B989DEDBB
:1027B0000A0B20F00040B0F1795F0DDA51EC100BFC
:1027C000FFF71CFC042808BF00F09AF89DED0A0BE7
:1027D000BDEC0A8B05B030BD53EC102B51EC100B47
:1027E000FFF740F941EC180B9DED0A0B53EC182B49
:1027F00051EC100BFFF736F941EC190B2C48B0EEF9
:10280000480AF0EE680A05217844FFF749FF9FED7A
:102810002ACBB0EE40AAF0EE60AA9CB353EC1C2B7E
:1028200051EC190BFFF71EF941EC1C0B53EC1A2B62
:1028300051EC190BFFF716F99FED210B41EC190B29
:1028400053EC102B51EC1B0BFFF70CF953EC192B2D
:10285000FFF710FB53EC182BFFF704F953EC1B2B7D
:10286000FFF708FB53EC1C2BFFF704FB9DED0A1B45
:1028700053EC112BFFF701FBBDEC0A8B05B041ECCB
:10288000100B30BDFFE753EC1A2B51EC180BFFF780
:10289000E9F853EC1C2BFFF74CFA53EC192BFFF71C
:1028A000E1F89DED0A1B53EC112BFFF742FAE3E729
:1028B0005402000000000000495555555555C5BF4C
:1028C000000000000000E03F10B553EC102B51EC6D
:1028D000100BFFF72EFA41EC100B10BD00000000AA
:1028E0009FED050B10B553EC102B51EC100BFFF7BF
:1028F000C7FA41EC100B10BD000000000000000002
:102900009FED050B10B553EC102B51EC100BFFF79E
:10291000A9F841EC100B10BD0000000000000010F1
:1029200002E008C8121F08C1002AFAD17047704798
:10293000002001E001C1121F002AFBD170470000F6
:1029400001490860704700002800002082B0CDE9EE
:10295000000121F0004001909DED000B02B051EC10
:10296000100B7047000000004C5555555555A53FBC
:102970007751C1166CC156BF9015CB19A001FA3E14
:10298000AD529C804F7E92BEC4B1B4BD9EEE213E3E
:10299000D43888BEE9FAA8BD00004054FB21F93FB5
:1029A0003163621A61B4D03D0000601A61B4D03D59
:1029B0007370032E8A19A33B0000002E8A19A33BD3
:1029C000C14920259A837B390000000000000000E7
:1029D0006E83F9A22915444ED15727FCC0DD34F58A
:1029E000999562DB4190433CAB6351FE61C5BBDE10
:1029F0003A6E24B7E0D24D42EA2E49061C92D10924
:102A00001CEB1DFE3EA729B1F53582E88444BB2EA0
:102A100026709CE9417E5FB439D69139F4395383ED
:102A20008B5F849C3B28F9BDFF97F81F0F9805DE4C
:102A30008B112FEF1F6D0A5ACF7E366DB709CB274A
:102A4000663F464F2DEA5F9EC7BA27757BF1E5EBDF
:102A5000F739073DEA92528AB15FFB6B085D8D1F23
:102A6000A6F810111111813FD561C119A0012ABF2B
:102A70007DFEB157E31DC73EEB9C2B8AE6E55ABEAF
:102A80007CD5CF5A3AD9E53DA82A0008000000209D
:102A90002C00000020290008D42A00082C00002067
:102AA00004140000302900080000000001020304A3
:102AB00001020304060708090000000000E1F50513
:102AC00000000000000000000102030406070809DE
:042AD0000000000002
:040000050800019955
:00000001FF
